:020000040800F2
:10000000000001203D0A0008D9090008DB090008AA
:10001000DD090008DF090008E10900080000000010
:10002000000000000000000000000000E3090008DC
:10003000E509000800000000E7090008E9090008D8
:100040008D0A00088D0A00088D0A00088D0A000834
:100050008D0A00088D0A0008ED090008F309000860
:10006000F90900088D0A00088D0A00088D0A0008A9
:100070008D0A00088D0A00088D0A00088D0A000804
:100080008D0A00088D0A00088D0A00080000000093
:10009000000000000000000000000000FF09000850
:1000A0008D0A0008050A00088D0A00088D0A00085C
:1000B000110A00088D0A00088D0A00088D0A000840
:1000C0008D0A00088D0A00088D0A00088D0A0008B4
:1000D0008D0A00081D0A00088D0A000800000000B3
:1000E0008D0A00088D0A00088D0A00080000000033
:1000F0000000000000000000000000008D0A000861
:10010000000000008D0A00088D0A00088D0A000812
:1001100000000000000000000000000000000000DF
:100120008D0A00088D0A00088D0A00088D0A000853
:100130008D0A000800000000000000000000000020
:100140000000000000000000000000008D0A000810
:100150008D0A00088D0A00088D0A00088D0A000823
:100160008D0A00088D0A0008000000000000000051
:10017000000000000000000000000000000000007F
:10018000000000008D0A00080000000000000000D0
:040190008D0A0008CC
:1001940010B5054C237833B9044B13B10448AFF3BD
:1001A40000800123237010BD140000200000000013
:1001B400902D000808B5034B1BB103490348AFF366
:1001C400008008BD0000000018000020902D0008E9
:1001D40053B94AB9002908BF00281CBF4FF0FF31AA
:1001E4004FF0FF3000F088B9ADF1080C6DE904CE92
:1001F40000F006F8DDF804E0DDE9022304B07047FE
:100204002DE9F047089D8E4604468846002B4AD1C6
:100214008A42174662D9B2FA82F64EB1C6F1200379
:1002240001FA06F820FA03F3B74043EA0808B44099
:100234004FEA174E1FFA87FCB8FBFEF1230C0EFBA6
:10024400118843EA084301FB0CF29A4209D9FB18CE
:1002540001F1FF3080F0EA809A4240F2E7800239EF
:100264003B449A1AA3B2B2FBFEF00EFB102243EAFF
:10027400024300FB0CFC9C4509D9FB1800F1FF323A
:1002840080F0D6809C4540F2D3803B44023840EA5B
:100294000140A3EB0C0300211DB1F3400022C5E98A
:1002A4000032BDE8F0878B4205D90DB1C5E90001E4
:1002B40000210846F5E7B3FA83F1002946D17345D6
:1002C40002D3824200F20581841A6EEB03020120FC
:1002D4009046002DE5D0C5E90048E2E7002A00F089
:1002E4009080B2FA82F6002E40F0A4808A1A030CA1
:1002F4004FEA174E80B2BCB20121B2FBFEFC0EFBEA
:100304001C2243EA024304FB0CF29A4207D9FB186D
:100314000CF1FF3802D29A4200F2E080C4469B1AE4
:10032400B3FBFEF20EFB123340EA034302FB04F478
:100334009C4207D9FB1802F1FF3002D29C4200F222
:10034400CA8002461B1B42EA0C40A5E7C1F1200605
:100354008B4022FA06F71F430EFA01F420FA06F343
:100364002EFA06FE4FEA1749234300FA01F81FFA52
:1003740087FCBEFBF9F01C0C09FB10EE44EA0E44AA
:1003840000FB0CFEA64502FA01F209D93C1900F162
:10039400FF3A80F09C80A64540F2998002383C44A4
:1003A400A4EB0E041FFA83FEB4FBF9F309FB134418
:1003B4004EEA044403FB0CFCA44508D93C1903F1A0
:1003C400FF3E80F08280A4457FD9023B3C4443EA4F
:1003D4000040A4EB0C04A0FB02EC64457346E14628
:1003E40062D35FD05DB1B8EB030264EB090404FA95
:1003F40006F622FA01F31E43CC40C5E9006400214D
:100404004FE7B1FBF2FC010C41EA0E4180B240EA35
:1004140001423B4638463C46B846BE462026B1FB20
:10042400F7F1A2EB080241EA0C4166E7014618E73E
:1004340010462CE7C6F120022EFA02F3B740B14071
:1004440020FA02F24FEA174E0A43B3FBFEF8BCB29D
:100454000EFB1833110C41EA034108FB04F9B040C8
:1004640089454FEA104380B23ED9791808F1FF3C20
:1004740001D289451FD8A1EB0901B1FBFEF909FBA3
:1004840004F80EFB191192B242EA0142424529D204
:10049400BA1809F1FF31C4D24245C2D2A9F102010E
:1004A4003A44BEE7F0459DD2BEEB02036CEB070C69
:1004B4000138E14696E7A7EB09094944A8F1020C83
:1004C400B1FBFEF909FB04F8DBE773467FE750460E
:1004D40066E70846FDE63B44023A33E7ACF1020C1A
:1004E4003B441CE749469CE7A1EB0901C446B1FB28
:1004F400FEF909FB04F8C4E7704700BF70B5002497
:100504008CB000F0DFFF00F0F3FACDE90944864B2C
:1005140001940B941A6B854842F004021A631A6B17
:1005240002F004020192019A02941A6B42F08002D2
:100534001A631A6B02F080020292029A03941A6BF5
:1005440042F001021A631A6B02F001020392039A49
:1005540004941A6B42F002021A631B6B03F0020349
:1005640004934FF40416049B07A98023CDE90736AE
:10057400072501F0AFF86E48099407A9CDE907569D
:1005840001F0A8F822462146062000F0EDFF0620DF
:1005940001F01CF822462146284600F0E5FF2846D3
:1005A40001F014F822462146082000F0DDFF08205F
:1005B40001F00CF822462146172000F0D5FF172041
:1005C40001F004F85B4E5C485C4B0462C0E90063D4
:1005D4004FF48043C0E90244C0E90434C0E906444E
:1005E40001F046FA08B100F081FA1022002107A8B0
:1005F40002F0A0FB524D53480F220023C0E90052E1
:100604004FF6FF72CDE90533C0E90323C0E9053392
:10061400836002F015F808B100F068FA4FF48053D3
:100624004848079307A902F041F808B100F05EFAC0
:100634000023444805A9CDE9053302F0D1F808B1F7
:1006440000F054FA4048414C4FF4E133C0E9004310
:100654000C220023C0E90233C0E905230361C3610E
:1006640002F082F908B100F041FA1022002107A833
:1006740002F060FB36480F224FF08041C0E90012BF
:10068400344A0023CDE90533C0E903238360836141
:1006940001F0D6FF08B100F029FA4FF480532C483A
:1006A400079307A902F002F808B100F01FFA00232B
:1006B400274805A9CDE9053302F092F808B100F006
:1006C40015FA1A480122802100F0E0F918480022A6
:1006D400012100F0DBF902221146154800F0D6F999
:1006E40013480322042100F0D1F900F0D1FA0120CB
:1006F40000F0EAF9044688B900F0E6F980B903206D
:1007040000F0E2F970B9022000F0DEF900280CBF15
:100714004FF0FF30022000F0C1FAE8E70120FAE7C9
:100724002046F8E70320F6E70038024000000240C4
:10073400000402400054004008010020A08601008B
:1007440000000140C00000203000002000100140E3
:10075400780000206F110100012808B513D1002092
:1007640000F0A0F90D4801F061FE062000F03CFF06
:10077400072000F039FF082000F036FFBDE80840EC
:10078400172000F031BF0228EAD0042801D1032049
:10079400E6E78028E6D10120E2E700BF78000020E8
:1007A4000368B3F1804F10B544D1002000F096F9EE
:1007B4000128014605D1204800F04EFA08B900F09E
:1007C40079F9012000F08AF90128044607D11B4871
:1007D400802100F041FA10B9204600F06BF90320A3
:1007E40000F07CF9012807D11348042100F034FA01
:1007F40010B9032000F05EF9022000F06FF901281F
:1008040007D10D48022100F027FA10B9022000F0A8
:1008140051F90B4801F0F6FD062000F0D7FE072041
:1008240000F0D4FE082000F0D1FEBDE810401720EF
:1008340000F0CCBE10BD00BF000402400000024026
:100844007800002082B00C4B002100915A6C42F4D5
:1008540080425A645A6C02F480420092009A0191D8
:100864001A6C42F080521A641B6C03F0805301939B
:10087400019B02B0704700BF0038024030B5044607
:1008840089B01422002103A802F054FA2268134B01
:100894009A4221D1124C134800250195236B43F051
:1008A40002032363236B03F002030193019BC02221
:1008B4001223CDE9032303210423CDE9061303A95D
:1008C40000F008FF0295236C43F400132364236CA7
:1008D40003F400130293029B09B030BD005400409E
:1008E400003802400004024007B50368184A9342E6
:1008F40015D1184B00220092596C41F00101596442
:100904005B6C03F00103009319201146009B00F077
:100914002BFE192003B05DF804EB00F057BEB3F1D1
:10092400804F12D1002203F50E330192196C41F06D
:10093400010119641B6C03F0010301931C2011468F
:10094400019B00F011FE1C20E4E703B05DF804FBFA
:10095400000001400038024010B5044688B014225B
:10096400002103A802F0E6F92268184B9A422BD121
:1009740003F59433002401945A6C154842F0100294
:100984005A645A6C02F010020192019A02941A6B92
:1009940042F001021A631B6B03F0010302934FF44C
:1009A400C062029B0223CDE9032303210723CDE97F
:1009B400061303A900F08EFE25202246214600F0EE
:1009C400D3FD252000F002FE08B010BD0010014048
:1009D40000000240FEE7FEE7FEE7FEE7FEE77047A1
:1009E4007047704700F088BD012000F045BF022029
:1009F40000F042BF042000F03FBF802000F03CBF65
:100A0400014801F049BD00BFC0000020014801F0C9
:100A140043BD00BF78000020014802F03BB800BF8E
:100A240030000020034AD2F8883043F47003C2F83F
:100A34008830704700ED00E0DFF834D0FFF7F2FFB4
:100A44000C480D490D4A002302E0D458C450043325
:100A5400C4188C42F9D30A4A0A4C002301E01360FB
:100A64000432A242FBD302F06DF9FFF747FD704751
:100A7400000001200000002014000020783B000842
:100A84001400002010060020FEE70000044B43F889
:100A9400320003EBC20300229980DA80704700BF62
:100AA4005C010020024B03EBC00301229A717047E2
:100AB4005C010020034B03EBC0034FF48172DA8026
:100AC400704700BF5C010020034B03EBC003D879DF
:100AD40008B10022DA7170475C010020024B03EB7D
:100AE400C0039879704700BF5C01002072B6FEE72E
:100AF40010B594B02C22002109A802F01BF914228D
:100B0400002103A802F016F900241A4B01941A6C70
:100B140042F080521A641B6C174A03F0805301930D
:100B2400019B0294136823F4404343F4004313608D
:100B340013680E9403F440430293029B0223089328
:100B44000121102308A8CDE90B1301F0C5F908B160
:100B5400FFF7CCFF0F23002103A8CDE90334CDE92F
:100B64000544079401F094FB08B1FFF7BFFF14B0EC
:100B740010BD00BF0038024000700040204B984276
:100B840084B00DD1002300931E4B1A6B42F0010276
:100B94001A631B6B03F001030093009B04B07047BE
:100BA400194B98420CD100230193164B1A6B42F057
:100BB40002021A631B6B03F002030193019BEDE72E
:100BC400124B98420CD1002302930E4B1A6B42F045
:100BD40004021A631B6B03F004030293029BDDE718
:100BE4000B4B9842DAD100230393064B1A6B42F065
:100BF40008021A631B6B03F008030393039BCDE7FE
:100C04000000024000380240000402400008024094
:100C1400000C024070B586B00E46144605461022FC
:100C2400002102A802F086F8022C01960AD0032CB7
:100C34000BD0012C00D1029401A9284600F04AFDF2
:100C440006B070BD01230393F6E70223FBE7531EAE
:100C54005A425A4100F00ABE08B500F001FE431E94
:100C64005842584108BD08B50023C2E900014FF4B9
:100C74008041C2E90233C2E90413C2E906331362B4
:100C8400104600F0F5FE003818BF012008BD000032
:100C9400014B00221A707047D401002070B5694CD2
:100CA40023788AB00546072B00F2CA80DFE803F0F8
:100CB40004355473859AB371634A64496448FFF7F1
:100CC400D2FF00F02DFB002000F078F90021084647
:100CD40000F0A4F901225F495F4800F0F3F9142100
:100CE400002000F09BF95B495C48012200F0EAF91E
:100CF40000F0F4FA08231022CDE901320423584A03
:100D04005849009305A8022300F026F94FF4FA602D
:100D140000F004FC012323703BE0002000F04EF9B6
:100D24000021084600F07AF94A494F48012200F0B0
:100D3400C9F900F0D3FA4FF4FA6000F0EFFB4B4925
:100D4400002000F09FF84A49012000F09BF80020A1
:100D540000F09EF80223DEE701280CD1434900206D
:100D640000F090F82846424900F08CF8284600F03C
:100D74008FF80523CFE703280BD13E49002000F06C
:100D840081F83D49012000F07DF8002000F080F852
:100D940025700AB070BD0328FBD1002000F00EF9C5
:100DA4000021084600F03AF92A493448012200F0AB
:100DB40089F900F093FA0423ADE7294E3225012284
:100DC40008213046FFF743FF642000F0A7FB002210
:100DD40008213046FFF73BFF642000F09FFB013DF4
:100DE400EDD1ACE70028AAD00328D2D1002000F02E
:100DF400E5F80021084600F011F9164920480122BF
:100E040000F060F900F06AFA154801220221FFF7A8
:100E14001EFF06237FE740F6B83000F07FFB13493E
:100E2400002000F02FF81249012000F02BF80120D7
:100E340000F02EF80A4800220221FFF708FF98E785
:100E4400002368E7D401002008010020801A06006E
:100E540000540040040000201C3B0008263B00080E
:100E640000000240C0000020313B00083C3B000869
:100E7400453B00084C3B0008303B0008543B00084D
:100E84005F3B0008014B43F820107047D801002055
:100E94002DE9F7430746002000F090F80024144E93
:100EA400DFF8508025464FF001092146002000F06C
:100EB400B5F8AF4219D1611E8022CDF800901223FB
:100EC40089B2002000F0A8F90022306841460135BB
:100ED40000F0F8F812340B2DA4B206F10406E4D1A4
:100EE40003B0BDE8F04300F0F9B90122EDE700BF1B
:100EF400D80100200400002030B587B00C46054618
:100F04001022002102A801F015FF00234FF6FF7202
:100F1400C4E90153C4E90323C4E905332046CDE9F8
:100F2400003301F08DFB08B1FFF7E0FD4FF480536F
:100F340002A92046029301F0B9FB08B1FFF7D6FDE0
:100F4400002369462046CDE9003301F049FC08B18D
:100F5400FFF7CCFD07B030BD2DE9F8431E46BDF8C0
:100F64002090BDF82480BDF8287003810023144626
:100F74000382C0E90012A0F80A90A0F80C80C7818F
:100F840010460D46FFF7FAFD314620460122FFF7D1
:100F940041FE494620460122FFF73CFE41462046D9
:100FA4000122FFF737FE394620460122FFF732FEC1
:100FB40029461020BDE8F843FFF79EBF00284FF4F0
:100FC4008062034814BFFF21002101F0B3BE00BFBB
:100FD4000A0200207F2830B510D83F290ED80D4BC7
:100FE4000D4C1D79CB0801F0070145B14AB900EB5E
:100FF400C3100123225C8B401343235430BD012AC8
:10100400F5D000EBC3100122235C8A4023EA0203DB
:10101400F3E700BF040200200A020020014B1880FD
:1010240059807047040200202DE9F04FDFF89090BA
:1010340085B0B9F8006001920A7832447F2A0546E7
:101044000C463BDCB9F802B04A785A443F2A35DCF6
:10105400A0F12003002703936278974207D32278F4
:101064001644A9F80060284605B0BDE8F08F039B3C
:10107400616802FB03720BEB070A31F8123002932A
:101084004FF000081FFA8AFA2278904501D30137FD
:10109400E2E7029B03FA08F2130454BF019B019A8E
:1010A40006EB080058BFB3FA83F280B258BF520966
:1010B4005146FFF78FFF08F10108E5E70025D2E765
:1010C4000402002070B50D461646441E14F8010FA4
:1010D40038B132462946FFF7A7FF034620788342FA
:1010E400F4D070BD2DE9F04F7F2828BF7F207F2AE0
:1010F40028BF7F223F2928BF3F2185B03F2B28BF2F
:101104003F2390429DF83840019434BFA2EB00097C
:10111400A0EB02099942064614460F461D460FFAF3
:1011240089F929D2A3EB010A90420FFA8AFA2ED246
:101134004FF0010B0123D145DBBF0AEBDA784FEA0C
:10114400680809EBD978C8F10008CCBF4FEA6808F1
:101154000FFA88F8B9F1000F27D1AF429EBF2B4692
:101164003D461F46B44228BF3446A4B22DB2BD4208
:1011740013DD05B0BDE8F08FA1EB030A90420FFA2E
:101184008AFA07D34FF0FF3B4FF0FF33D3E74FF01A
:10119400FF3BCFE74FF0010BF6E7ADB22946019ACA
:1011A4002046FFF717FF0135E0E7BAF1000F1FD023
:1011B400C9F100020292019A039339463046FFF7BF
:1011C40009FFA642039B01D1AF42D2D0029A9045B7
:1011D400C1BFA8EB0A025E4412B2B6B2D8BF4246FF
:1011E400D04503DA4A441F4412B2BFB29046E2E744
:1011F400BD4228BF3D46A642ADB202D8234634467E
:101204001E4624B2B442B4DCA4B22046019A294654
:10121400FFF7E0FE0134F4E72DE9F7437F289DF85A
:10122400288006460F461D4624D83F2922D8831815
:101234007F2BC8BFC0F1800201EB0503C8BF92B287
:101244003F2BC8BFC1F140050244C8BFADB24FF047
:10125400000994B207EB09039BB21946CDF800804C
:101264002246304609F10109FFF73CFF1FFA89F3D2
:101274009D42EFD203B0BDE8F083000030B5C3B0A7
:1012840000248DF80810E1B2994204F101050AD353
:101294000A220133009201469BB202AA054800F0DB
:1012A4008FFC43B030BD02AC0C44515C61702C46E1
:1012B400E9E700BF080100201FB50A238DF80C10D0
:1012C4008DF80D2000930146022303AA024800F082
:1012D40077FC05B05DF804FB0801002038B50F4D1C
:1012E400B024224600217820FFF7E6FF00221146B1
:1012F4007820FFF7E1FF0134102200217820FFF766
:10130400DBFFE4B22A46802340217820FFF7B6FFB2
:10131400B82C05F18005E4D138BD00BF0A020020D5
:1013240010B5544844F620630122782100F022FDD0
:101334000446002840F09C800146AE227820FFF746
:10134400BBFF202221467820FFF7B6FF102221465A
:101354007820FFF7B1FFB02221467820FFF7ACFFD9
:10136400C82221467820FFF7A7FF2246214678208D
:10137400FFF7A2FF102221467820FFF79DFF4022AD
:1013840021467820FFF798FF812221467820FFF735
:1013940093FFFF2221467820FFF78EFFA1222146EA
:1013A4007820FFF789FFA62221467820FFF784FFE3
:1013B400A82221467820FFF77FFF3F22214678208C
:1013C400FFF77AFFA42221467820FFF775FFD32286
:1013D40021467820FFF770FF224621467820FFF748
:1013E4006BFFD52221467820FFF766FFF0222146C5
:1013F4007820FFF761FFD92221467820FFF75CFFB0
:10140400222221467820FFF757FFDA22214678204E
:10141400FFF752FF122221467820FFF74DFFDB220F
:1014240021467820FFF748FF202221467820FFF745
:1014340043FF8D2221467820FFF73EFF14222146E8
:101444007820FFF739FFAF2221467820FFF734FFD9
:101454002E2221467820FFF72FFF2046FFF7AEFD0E
:10146400FFF73CFF044B01201C805C80587110BDC9
:101474000020FCE7080100200402002038B50E4BD0
:101484001A784FF47A73B3FBF2F30C4A05461068EA
:10149400B0FBF3F000F0BAF8044658B90F2D09D8A0
:1014A400024629464FF0FF3000F05EF8044B204618
:1014B4001D6038BD0120FCE70C0000200000002066
:1014C4001000002008B50B4B1A6842F400721A6031
:1014D4001A6842F480621A601A6842F480721A60D0
:1014E400032000F02FF80F20FFF7C8FFFFF7AAF939
:1014F400002008BD003C0240034A044B11681B78DD
:101504000B441360704700BF0C0600200C00002041
:10151400014B1868704700BF0C06002038B504461C
:10152400FFF7F6FF631C1CBF054B1B78054618BF6D
:10153400E418FFF7EDFF431BA342FAD338BD00BF05
:101544000C0000200749CA6822F4E0620302120476
:1015540003F4E063120C134343F0BF6343F400331A
:10156400CB60704700ED00E0164B30B5DC68C4F387
:101574000224C4F10703251D042B28BF0423062DD0
:101584004FF0FF358CBF033C002405FA03F321EA36
:101594000303A54022EA0502A340002843EA02030C
:1015A400ACBF00F16040084A4FEA0313B8BF00F033
:1015B4000F00DBB2AABF00F56140135480F800337A
:1015C40030BD00BF00ED00E014ED00E0002807DBB3
:1015D400044A4109012300F01F00834042F82130EE
:1015E400704700BF00E100E000280CDB4309064916
:1015F40000F01F0020330122824041F82320BFF372
:101604004F8FBFF36F8F704700E100E00138B0F1F6
:10161400807F0BD24FF0E023054A5861F02182F815
:1016240023100020072298611A6170470120704737
:1016340000ED00E070B50446866DFFF769FF94F88D
:101644003530022B054606D0802363650120002334
:1016540084F8343070BD23681A6822F016021A60C8
:101664005A6922F080025A61226C0AB9A26C1AB13A
:101674001A6822F008021A601A6822F001021A603D
:101684002368186810F0010007D1E26D3F239340EE
:10169400B360012384F83530D9E7FFF739FF401BE5
:1016A4000528EDD920230320636584F83500CEE7AF
:1016B40090F83530022B03D0802343650120704716
:1016C4000268052380F83530136823F001031360A2
:1016D400002070472DE9F74FDFF880915D4A002321
:1016E4000D6801249C4004EA0506AC4340F0A38045
:1016F4004D68032705F003044FEA430807FA08FC82
:10170400671E012F6FEA0C0C34D8876807EA0C0EA9
:10171400CF6807FA08F747EA0E078760476827EAA1
:10172400060EC5F300179F4047EA0E074760C768D7
:1017340007EA0C0E8F6807FA08F747EA0E07022C2F
:10174400C76019D14FEAD30A00EB8A0A03F0070BEA
:10175400DAF820704FEA8B0B4FF00F0E0EFA0BFEE7
:1017640027EA0E0E0F6907FA0BF747EA0E07CAF8C5
:10177400207001E0032CDAD1076804FA08F407EAC0
:101784000C073C4315F4403F046054D000240194FA
:10179400D9F8444044F48044C9F84440D9F844405A
:1017A40023F0030707F1804704F4804407F59C37CE
:1017B400019403F0030C019CD7F808E04FEA8C0C69
:1017C4000F2404FA0CF42EEA040E234CA04239D060
:1017D40004F58064A04237D004F58064A04235D07B
:1017E40004F58064A04233D004F58064A04214BFA1
:1017F4000724042404FA0CF444EA0E04BC6094683C
:10180400F74315F4801F0CBF3C4034439460D46804
:1018140015F4001F0CBF3C403443D460546815F4E5
:10182400003F0CBF3C40344354601468ED0354BF84
:101834003C40344314600133102B7FF451AF03B0A8
:10184400BDE8F08F0024D5E70124D3E70224D1E7D3
:101854000324CFE7003C014000000240003802406E
:101864000369194214BF0120002070470AB1816145
:1018740070470904FBE70000044A5169014208B5B6
:1018840002D05061FEF768FF08BD00BF003C014074
:1018940001684B6913F480634FF0000210D06FF4B9
:1018A40080634B612023026380F83D3080F83E2042
:1018B400036C80F83C2043F0040303640120704768
:1018C400184670472DE9F84606460F4691461D46D0
:1018D4004FEA114A3368BAF1010F0CBF5C699C6985
:1018E40027EA0404A4B2B4FA84F46409A14501D03B
:1018F400002025E06A1CEED0FFF70AFE089BC01A00
:10190400A84201D8002DE5D13368BAF1010F0CBF0C
:101914005B699B6927EA03039BB2B3FA83F35B0910
:101924009945D7D100232022336386F83D2086F8D9
:101934003E30326C86F83C3042F0200232640120A2
:10194400BDE8F8862DE9F04104460F461646984650
:101954002568686927EA000080B2C0B16B695A053E
:1019640017D52B6843F400732B606FF480636B61AD
:1019740020220023236384F83D2084F83E30236C26
:1019840043F004032364002384F83C300120BDE8C1
:10199400F081731CDDD0FFF7BBFDA0EB0800B04263
:1019A40001D8002ED4D123685A6927EA020292B2E0
:1019B400002ACDD000232022236384F83D2084F81C
:1019C4003E30236C1343DDE770B504460D461646DE
:1019D40023685B691B0601D500201EE02046FFF743
:1019E40057FFC8B96A1CF3D0FFF792FD801BA842C9
:1019F40001D8002DECD123685B6913F08003E7D193
:101A04002022236384F83D2084F83E30226C84F83D
:101A14003C3042F020022264012070BD70B50446BF
:101A24000D46164623685B695B0701D500201EE05E
:101A34002046FFF72DFFC8B96A1CF3D0FFF768FDF5
:101A4400801BA84201D8002DECD123685B6913F0F8
:101A54000403E7D12022236384F83D2084F83E3038
:101A6400226C84F83C3042F020022264012070BDD4
:101A740070B5044608B9012070BD90F83D3003F0FC
:101A8400FF021BB980F83C20FEF7F8FE242384F8FB
:101A94003D3023681A6822F001021A601A6842F481
:101AA40000421A601A6822F400421A6000F08AFCAC
:101AB4003F4B65689D4294BF3E4B3F4B98428CBF61
:101AC40000230123002BD6D12268394E51683B4BA9
:101AD400B0FBF3F321F03F011943B542516088BFD5
:101AE4004FF49676116A88BF734321F03F0184BF97
:101AF4004FF47A76B3FBF6F301330B431362D169E7
:101B0400431E2B4821F44F41854221F0FF0132D876
:101B14006D0040F6FC70B3FBF5F30133034242D091
:101B2400C3F30B031943D161D4E9073011680343AC
:101B340021F0C0010B4313609168D4E9030321F43D
:101B44000341034321F0FF010B439360D4E90530C3
:101B5400D168034321F0FF010B43D360136843F0C2
:101B64000103136000202023206484F83D302063A7
:101B740084F83E0080E7A06850B905EB4505B3FB47
:101B8400F5F30133C3F30B037BB143F40043C9E71B
:101B940019206843B3FBF0F30133C3F30B0323B100
:101BA40043F44043BEE70423BCE70123BAE700BF84
:101BB400A08601007F841E00FF083D0040420F0004
:101BC4002DE9F043044685B098460C9F0D46914696
:101BD400FFF79EFC94F83D30202B064604D00225E6
:101BE400284605B0BDE8F08300905E491923012220
:101BF4002046FFF767FE0028F1D194F83C30012B12
:101C0400EDD02168012384F83C300B68DA075EBF0D
:101C14000B6843F001030B600B6823F400630B6053
:101C2400212384F83D30102384F83E3000232364BC
:101C3400A4F82A80638D23854B4BE362E36AC4F8DE
:101C44002490082B04D0012B02D013F5803F04D13B
:101C54000B6843F480730B6002E0236B122BF7D004
:101C6400002200963B464FF001112046FFF72AFE62
:101C7400226840B11368DB0501D40125B0E74FF4B5
:101C840000732364F9E72369B3F5804F21D105F08C
:101C9400FE051561354933463A462046FFF752FEA4
:101CA40005460028E9D1236803905A6903929B6989
:101CB4000393039B238DF3B921680A6842F40072ED
:101CC4000A60202284F83D2084F83C3084F83E30B9
:101CD40086E7EB1103F0060343F0F0031361244994
:101CE40033463A462046FFF72DFE0028C5D1236827
:101CF400EDB21D61CEE7324639462046FFF764FE59
:101D040040B1236C042BB8D12268136843F40073E8
:101D14001360B2E7636A20681A4612F8011B016176
:101D24006262628D013A92B26285228DD0F814C04B
:101D3400511E89B21CF0040F21850AD049B159788B
:101D4400016102336362638D013B9BB2023A638596
:101D54002285324639462046FFF760FE0028A9D086
:101D6400CFE700BF020010000000FFFF02000100E7
:101D7400080001002DE9F04F044685B01F4688464F
:101D84009246FFF7C5FB94F83D30202B054603D05F
:101D9400022005B0BDE8F08F00904D4919230122BF
:101DA4002046FFF78FFD0028F2D194F83C30012B38
:101DB400EED0012384F83C302368DFF814B11A68AC
:101DC400D0075EBF1A6842F001021A601A6822F452
:101DD40000621A60242384F83D3000263D4B2664BB
:101DE40008F0FE08E3622268136843F4807313600A
:101DF4004FF001113B46009500222046FFF762FD9B
:101E0400236838B11B68D90544BF4FF400732364B9
:101E14000320BEE7C3F81080FFF77AFB23685A69F2
:101E24005B690546C2F34002C3F380234FF0A00967
:101E340094F83D10A0291CD123684FF0200984F8A0
:101E44003D905A6992072BD51A68214942F40072D1
:101E54001A60002203925A6903929B690393039BBD
:101E64000095192301222046FFF72CFD98B101208B
:101E74008FE71343E0D1FFF74BFB401BB84200D878
:101E84000FB984F83D9023685A695B69C2F3400234
:101E9400C3F38023CCE784F83D9084F83C0078E7D2
:101EA4001A6842F400721A606FF480625A615946EB
:101EB4000095192301222046FFF704FD0028D6D1FE
:101EC400013656458FD384F83D9084F83C00CEE724
:101ED400020010000000FFFF2DE9F341044640B367
:101EE4000368DE0710D423689D075BD423681907B1
:101EF40000F19D8023685A0700F1BD80A369002B7F
:101F040040F0248100202CE08D4B9A6802F00C02F2
:101F1400042A07D09A6802F00C02082A0BD15B68E5
:101F2400590208D5864B1B689A03DCD56368002BDD
:101F3400D9D1012015E06368814DB3F5803F13D1F9
:101F44002B6843F480332B60FFF7E2FA7C4E05469E
:101F540033689B03C7D4FFF7DBFA401B6428F7D927
:101F6400032002B0BDE8F081B3F5A02F04D12B68A3
:101F740043F480232B60E3E72A6822F480322A604A
:101F84002A6822F480222A60002BDDD1FFF7C0FAF0
:101F940006462B689F03A6D5FFF7BAFA801B642870
:101FA400F7D9DDE7664B9A6812F00C0F07D09A68F0
:101FB40002F00C02082A11D15B685D020ED4604A5B
:101FC4001368990702D5E368012BB2D1136821691C
:101FD40023F0F80343EAC103136087E7E268594B2F
:101FE400B2B101221A60FFF793FA554D06462B68E9
:101FF4009B0707D52B68226923F0F80343EAC20341
:102004002B6073E7FFF784FA801B0228EFD9A7E758
:102014001A60FFF77DFA4A4E054633689F077FF53D
:1020240065AFFFF775FA401B0228F6D998E7626995
:10203400444B82B10122C3F8802EFFF769FA404E67
:102044000546736F9B073FF555AFFFF761FA401BD9
:102054000228F6D984E7C3F8802EFFF759FA384EE0
:102064000546736F9F077FF545AFFFF751FA401B95
:102074000228F6D974E7324B1A6C12F0805228D138
:1020840001921A6C42F080521A641B6C03F0805364
:102094000193019B01272C4D2B68D8051BD5A36800
:1020A400274D012B27D12B6F43F001032B67FFF73B
:1020B4002FFA234E054641F28838336F9A0739D5F3
:1020C400002F3FF41BAF1E4A136C23F0805313649C
:1020D40014E70027DFE72B6843F480732B60FFF7D6
:1020E40017FA06462B68D905D9D4FFF711FA801BD5
:1020F4000228F7D934E7052B04D12B6F43F00403EE
:102104002B67D0E72A6F22F001022A672A6F22F098
:1021140004022A67002BCAD1FFF7FAF941F2883882
:1021240006462B6F9B07CBD5FFF7F2F9801B404582
:10213400F7D915E7FFF7ECF9401B4045BDD90FE788
:10214400003802400000474200700040374DAA6842
:1021540002F00C02082A3ED0022B354B4FF000024D
:102164001A662BD1FFF7D4F906462B6899011FD4C0
:10217400D4E907321343626A43EA8213E26A43EA08
:102184000263A26A5208013A43EA02436B60284B95
:10219400264D01221A66FFF7BBF904462B689A0103
:1021A4003FF5B0AEFFF7B4F9001B0228F6D9D7E625
:1021B400FFF7AEF9801B0228D7D9D1E6FFF7A8F9BB
:1021C40004462B689B017FF59DAEFFF7A1F9001B28
:1021D4000228F6D9C4E6012B3FF4ABAE6B68E26982
:1021E40003F4800191427FF4A4AE216A03F03F021C
:1021F4008A427FF49EAE616A47F6C0721A40B2EB1F
:10220400811F7FF496AEA26A520803F44031013A6A
:10221400B1EB024F7FF48DAEE26A03F07063B3EB6F
:10222400026F14BF012000209BE600BF003802406B
:1022340000004742134908B58B6803F00C03042BD4
:102244001CD0082B1CD14A684B68496813F48003DE
:1022540014BF0D480D48C1F3881118BF002302F0C4
:102264003F02A1FB0001FDF7B3FF064B5B68C3F31C
:10227400014301335B00B0FBF3F008BD0248FCE707
:102284000248FAE70038024040787D010024F40057
:102294002DE9F0410D46044610B90120BDE8F08156
:1022A400434B1A6802F007028A4228D321688F0739
:1022B4002DD4C80740D43E4B1A6802F00702AA4244
:1022C40065D8226851076BD4130707D5394A2169A9
:1022D400936823F4604343EAC1039360FFF7AAFFC2
:1022E400344B354A9B68C3F30313D35CD840334B58
:1022F4001860334B1868FFF7C1F80020CEE7CAB264
:102304001A701B6803F007038B42C6D1CEE7294B32
:1023140011F0040F1EBF9A6842F4E0529A600E074F
:1023240042BF9A6842F460429A609A68A06822F0B8
:10233400F00202439A60BCE762681E4B012A1CD17A
:102344001B6813F4003FA8D01A4EB36823F00303AC
:102354001343B360FFF7DCF841F288380746B368EB
:10236400626803F00C03B3EB820FA4D0FFF7D0F83C
:10237400C01B4045F3D9032090E7911E01291B6837
:1023840002D813F0007FDEE713F0020FDBE7EAB2B6
:102394001A701B6803F00703AB427FF47EAF90E72B
:1023A4000449E0688B6823F4E05303438B608BE7B4
:1023B400003C024000380240B02D0008000000201C
:1023C40010000020044B054A9B68C3F38223D35CAE
:1023D400034A1068D840704700380240A82D00080E
:1023E40000000020044B054A9B68C3F34233D35CCE
:1023F400034A1068D840704700380240A82D0008EE
:10240400000000200368196A41F21112114208D138
:10241400196A40F24442114202BF1A6822F00102D2
:102424001A60012380F83D300020704790F83D3059
:10243400012B28D1022380F83D300368DA6842F08A
:102444000102DA60114A934212D0B3F1804F0FD0E7
:10245400A2F57C4293420BD002F58062934207D0EE
:1024640002F58062934203D002F59A32934204D17A
:102474009A6802F00702062A03D01A6842F00102A1
:102484001A60002070470120704700BF000001401F
:102494007047704770477047036870B5DD681E6900
:1024A400B10704460DD5AA070BD56FF002021A61D5
:1024B400012202779B699B0769D0FFF7EAFF00239B
:1024C4002377710710D56A070ED523686FF00402CD
:1024D4001A61022222779B6913F4407F20465CD064
:1024E400FFF7D7FF0023237733070FD528070DD530
:1024F40023686FF008021A6104222277DB699907C6
:10250400204650D0FFF7C5FF00232377F20610D5ED
:10251400EB060ED523686FF010021A6108222277A9
:10252400DB6913F4407F204643D0FFF7B2FF00235A
:102534002377F00708D5E90706D523686FF0010271
:102544001A612046FEF72CF9320608D52B0606D56B
:1025540023686FF080021A61204600F078F9700653
:1025640008D5690606D523686FF040021A61204633
:10257400FFF791FFB20622D5AB0620D523686FF092
:10258400200220461A61BDE8704000F05FB9FFF7F1
:102594007FFF2046FFF77EFF91E7FFF779FF204694
:1025A400FFF778FF9EE7FFF773FF2046FFF772FF00
:1025B400AAE7FFF76DFF2046FFF76CFFB7E770BD92
:1025C4001D4A036890420ED0B0F1804F0BD0A2F5A3
:1025D4007C42904207D002F58062904203D002F51B
:1025E4008062904208D14A6823F070031343CA689A
:1025F40023F4407313430AE0104A9042F7D002F5E3
:1026040080629042F3D002F580629042EFD04A6932
:1026140023F0800313438A68C2620A688262064A0E
:10262400904204BF0A690263026842F00402026035
:1026340001224261036070470000014000400140F4
:1026440010B5044630B390F83D3003F0FF021BB9D7
:1026540080F83C20FEF748F90223206884F83D30D6
:10266400211DFFF7ADFF012384F84630002084F8D4
:102674003E3084F83F3084F8403084F8413084F8A8
:10268400423084F8433084F8443084F8453084F888
:102694003D3010BD0120FCE710B584680A4324F4E2
:1026A4007F4442EA03222243826010BD38B590F889
:1026B4003C30012B04464FF0020000F08E8084F879
:1026C4003D000122206884F83C20836823F47F4382
:1026D40023F0770383600B68602B4FD032D8402BF4
:1026E40064D016D8202B0DD00AD833F0100109D0AD
:1026F400012384F83D30002384F83C30104638BD73
:10270400302BF5D1826822F07002134343F00703A3
:1027140028E0502BECD14A68CD68016A036A23F0A3
:1027240001030362836921F00A0123F0F00343EA01
:1027340005130A4383610262836823F0700343F044
:1027440057030FE0B3F5805F0DD0B3F5005F0CD0F5
:10275400702BCDD1CB68D1E90121FFF79DFF8368B0
:1027640043F0770383600022C2E7CB68D1E90121FB
:10277400FFF792FF836843F48043F3E7036A026A36
:102784004D68C96822F010020262826923F0A00336
:1027940022F4704243EA051342EA01328261036281
:1027A400836823F0700343F06703DBE74A68CD686E
:1027B400016A036A23F001030362836921F00A01B9
:1027C40023F0F00343EA05130A438361026283683A
:1027D40023F0700343F04703C4E702468EE700008A
:1027E40030B590F83C30012B02464FF002002AD05D
:1027F400136882F83D005C680D68986824F07004E2
:102804002C435C60104CA34212D0B3F1804F0FD024
:10281400A4F57C44A3420BD004F58064A34207D002
:1028240004F58064A34203D004F59A34A34204D18E
:10283400496820F08000014399600123002082F858
:102844003D3082F83C0030BD0000014070477047C5
:10285400026802F10C0353E8003F23F490730C3236
:1028640042E8003102680029F2D102F1140353E86E
:10287400003F23F0010302F1140C4CE8003100295D
:10288400F3D1036B012B0BD102F10C0353E8003F8E
:1028940023F0100302F10C0C4CE800310029F3D1B1
:1028A400202380F842300023036370470268C16824
:1028B40038B5136923F440530B4313610546836809
:1028C4000069D168034368690343E86921F4164148
:1028D40021F00C0103430B43D3605369A96923F42A
:1028E40040730B4353611F4B9A4203D003F580633B
:1028F4009A4224D1FFF776FDEA691921B2F5004F17
:10290400D5E90043A0FB01011CD1DA184FF0000502
:1029140045EB0503FDF75CFC6422B0FBF2F102FB1E
:102924001103DB003233B3FBF2F303F007025B0065
:1029340002EB011203F4F8731344A36038BDFFF7EC
:1029440041FDD9E79A009B0FFDF742FC6422B0FBDE
:10295400F2F102FB11031B013233B3FBF2F303EB7D
:102964000113EAE70010014010B5044648B390F89B
:10297400413003F0FF021BB980F84020FDF7ECFF63
:102984002268242384F84130D36823F40053D360AD
:102994002046FFF78BFF23681A6922F490421A61DC
:1029A4005A6922F02A025A61DA6842F40052DA6063
:1029B40000202023606484F8413084F8423060634E
:1029C40010BD0120FCE770477047704708B5806B65
:1029D4000023C385FFF7F9FF08BD704790F8423024
:1029E400222B07B542D181680268836AB1F5805F02
:1029F4003FD1016900293FD15268C2F3080223F88C
:102A0400022B8362C38D013B9BB2C385002B2DD166
:102A14000268D16821F02001D160D16821F480716D
:102A2400D160516921F001015161202280F84220D6
:102A34004363026B012A026828D1036302F10C0389
:102A440053E8003F23F0100302F10C0C4CE8003172
:102A54000029F3D11368DB0605D5019113680193AE
:102A640053680193019B818DFFF7B7FF03B05DF8B5
:102A740004FB39B9016929B95268D2B21A70836A60
:102A84000133BEE7526802F07F02F7E7FFF79CFFCD
:102A9400ECE7000003681A6873B51607D9685D6926
:102AA400044608D1960668D58D0666D502B0BDE801
:102AB4007040FFF793BF05F0010001F490750543E2
:102AC4005BD0D60705D5CD0542BF636C43F0010347
:102AD4006364530704D518B1636C43F00203636461
:102AE400960704D518B1636C43F0040363641507B7
:102AF40007D501F0200303431EBF636C43F00803B2
:102B04006364636C002B32D0920604D58B0602D525
:102B14002046FFF763FF26687369626C03F0400385
:102B240002F0080253EA0205204622D0FFF790FE85
:102B340073695E0618D5226802F1140353E8003F56
:102B440023F04003143242E800310029F3D1E06B52
:102B540050B1774B0365FEF7ABFD40B1E06B036DFD
:102B640002B0BDE8704018472046FFF72EFF02B0C0
:102B740070BDFFF72AFF6564F9E7206B012840F078
:102B84009B80D50640F19880C80640F195800022CC
:102B940001921A6801925A680192019A5969A28DA8
:102BA400490656D5E06B0168496889B2002947D0C7
:102BB400914245D2C269E185B2F5807F36D003F1F6
:102BC4000C0252E8002F22F4807203F10C0040E85A
:102BD40000210029F3D103F1140252E8002F22F05E
:102BE400010203F1140040E800210029F3D103F1AC
:102BF400140252E8002F22F0400203F1140040E8CE
:102C040000210029F3D1202284F84220216303F11A
:102C14000C0252E8002F22F0100203F10C0040E8ED
:102C240000210029F3D1E06BFEF704FD0223636366
:102C3400E38DA18DC91A89B22046FFF7CEFE96E72F
:102C4400914294D1C369B3F5807F90D10223636329
:102C5400F2E7E18DE08D80B289B2002887D0511A65
:102C640089B2002983D003F10C0252E8002F22F428
:102C7400907203F10C0545E800200028F3D103F11C
:102C8400140252E8002F22F0010203F1140545E872
:102C940000200028F3D1202284F84220206303F18D
:102CA4000C0252E8002F22F0100203F10C0545E853
:102CB40000200028F3D1C9E7160628D50D0626D52D
:102CC40094F84120212A7FF452AFA168226AB1F519
:102CD400805F17D12169A9B932F8021BC1F3080139
:102CE40059602262E28C013A92B2E284002A7FF4B3
:102CF4003EAFDA6822F08002DA60DA6842F040021D
:102D0400DA6034E7511C216212785A60EAE750060F
:102D14007FF52DAF4A067FF52AAFDA6822F040022C
:102D2400DA60202384F841302046FFF74CFE1EE78A
:102D3400D129000802440346934200D1704703F8A6
:102D4400011BF9E770B50D4D0D4C641BA410002652
:102D5400A64209D10B4D0C4C00F018F8641BA410CA
:102D64000026A64205D170BD55F8043B98470136AC
:102D7400EEE755F8043B98470136F2E7703B00084C
:102D8400703B0008703B0008743B0008F8B500BFB6
:102D9400F8BC08BC9E467047F8B500BFF8BC08BC38
:042DA4009E46704790
:102DA8000000000001020304000000000000000011
:102DB80001020304060708090000000000000000E3
:102DC80000000000000000000000000000000000FB
:102DD8000000000000000000000000000000000CDF
:102DE800000C000C000C000C000C000C000C000C7B
:102DF800000C000C0000000C000C0000000000009B
:102E08000000001B001B001B001B001B0000000033
:102E180000000000000000000000000000000000AA
:102E28000000000000008019801980198019C07FF7
:102E3800C07F80190033C07FC07F00330033003368
:102E480000330000000000000000001E003F8075F5
:102E580080650074003C001E000780058065806561
:102E68008075003F001E0004000400000000007090
:102E780000D840D8C0D880D900730006000C801B49
:102E8800C036C066C046C0068003000000000000CF
:102E98000000001E003F003300330033001E000C0A
:102EA800C03CC066806380618063C03E801C0000B7
:102EB800000000000000000C000C000C000C000CCE
:102EC80000000000000000000000000000000000FA
:102ED8000000000000000000800000010003000660
:102EE80000060004000C000C000C000C000C000C88
:102EF8000004000600060003000180000020001006
:102F08000018000C000C000400060006000600066D
:102F1800000600060004000C000C00180010002039
:102F28000000000C002D003F001E003300000000D0
:102F38000000000000000000000000000000000089
:102F480000000000000000000000000C000C000C55
:102F5800000CC0FFC0FF000C000C000C000C0000AF
:102F68000000000000000000000000000000000059
:102F78000000000000000000000000000000000049
:102F88000000000C000C0004000400080000000011
:102F98000000000000000000000000000000001E0B
:102FA800001E0000000000000000000000000000FB
:102FB8000000000000000000000000000000000009
:102FC80000000000000000000000000C000C0000E1
:102FD80000000000000000030003000300060006D4
:102FE80000060006000C000C000C000C001800186D
:102FF80000180000000000000000001E003F003321
:10300800806180618061806D806D80618061806198
:103018000033003F001E0000000000000000000612
:10302800000E001E003600260006000600060006F8
:10303800000600060006000600060000000000006A
:103048000000001E003F80738061806180010003E2
:103058000006000C001800300060807F807F0000B0
:10306800000000000000001C003E00630063000335
:10307800000E000E00038001800180618073003F14
:10308800001E00000000000000000006000E000EF8
:10309800001E001E0016003600360066807F807F06
:1030A8000006000600060000000000000000007F87
:1030B800007F006000600060006E007F8063800118
:1030C800800180618073003F001E00000000000046
:1030D8000000001E003F803380610060006E007FAA
:1030E80080738061806180618033003F001E000032
:1030F800000000000000807F807F80010003000343
:1031080000060006000C000C000C0008001800184F
:1031180000180000000000000000001E003F80634F
:10312800806180610021001E003F806180618061B4
:103138008061003F001E0000000000000000001E2B
:10314800003F00738061806180618073803F801DD3
:10315800800180610073003F001E00000000000035
:1031680000000000000000000000000C000C00003F
:1031780000000000000000000000000C000C00002F
:103188000000000000000000000000000000000037
:10319800000C000C00000000000000000000000C03
:1031A800000C0004000400080000000000000000FB
:1031B80080008003000E003800600038000E800395
:1031C8008000000000000000000000000000000077
:1031D800000000000000807F807F00000000807FEA
:1031E800807F0000000000000000000000000000D8
:1031F800000000000000000000400070001C0007F4
:1032080080010007001C0070004000000000000062
:10321800000000000000001F803FC071C060C000B7
:10322800C00180030007000E000C000C0000000C19
:10323800000C0000000000000000001E003F80316C
:1032480080718063806F806D806D806F80670060A3
:103258000032003E001C0000000000000000000ECC
:10326800000E001B001B001B001B80318031803FBB
:10327800803F8031C060C060C06000000000000076
:103288000000007C007E0063006300630063007E32
:10329800007E0063806180618063007F007E0000A3
:1032A800000000000000001E003F803180610060C7
:1032B8000060006000600060006080618031003F55
:1032C800001E0000000000000000007C007F00637A
:1032D800806380618061806180618061806100635A
:1032E8000063007E007C0000000000000000807F7A
:1032F800807F0060006000600060007F007F0060E9
:10330800006000600060807F807F00000000000097
:103318000000807F807F0060006000600060007FA8
:10332800007F0060006000600060006000600000D6
:10333800000000000000001E003F80318061006036
:103348000060006080638063806180618031803FBD
:10335800001E0000000000000000806180618061A4
:10336800806180618061807F807F80618061806111
:103378008061806180610000000000000000003F63
:10338800003F000C000C000C000C000C000C000CA2
:10339800000C000C000C003F003F00000000000083
:1033A800000080018001800180018001800180018E
:1033B80080018001806180618073003F001E0000F1
:1033C800000000000000C0608061006300660066C5
:1033D800006C0078007C0066006600638061806194
:1033E800C060000000000000000000600060006095
:1033F80000600060006000600060006000600060C5
:103408000060807F807F0000000000000000C07125
:10341800C071C07BC07AC06AC06AC06EC064C06038
:10342800C060C060C060C060C060000000000000F4
:10343800000080718071807980798079806D806DDD
:10344800806D806580678067806780638063000027
:10345800000000000000001E003F00338061806112
:103468008061806180618061806180610033003F9C
:10347800001E0000000000000000007E007F806346
:103488008061806180618063007F007E00600060F1
:103498000060006000600000000000000000001EE6
:1034A800003F00338061806180618061806180615C
:1034B800806580670033803F401E000000000000E8
:1034C8000000007E007F8063806180618063007FF0
:1034D800007E00660063006380618061C060000058
:1034E800000000000000000E001F80318031003015
:1034F8000038001E00078003806180618031003F32
:10350800001E0000000000000000C0FFC0FF000C0B
:10351800000C000C000C000C000C000C000C000C43
:10352800000C000C000C000000000000000080618E
:10353800806180618061806180618061806180617B
:10354800806180618073003F001E00000000000061
:103558000000C060C060C060803180318031001BD5
:10356800001B001B001B000E000E000E00040000D4
:10357800000000000000C0C0C0C0C0C0C0C0C0C0C3
:10358800C0CC804C804C805E8052805280738061B9
:1035980080610000000000000000C0C08060806101
:1035A8000033003B001E000C000C001E001F003BF7
:1035B80080718061C0C00000000000000000C0C031
:1035C8008061806100330033001E001E000C000C77
:1035D800000C000C000C000C000C000000000000A7
:1035E8000000803F803F8001000300030006000CBC
:1035F800000C0018001800300060807F807F0000F9
:1036080000000000000F000F000C000C000C000C64
:10361800000C000C000C000C000C000C000C000C42
:10362800000C000C000F000F000000180018001814
:10363800000C000C000C000C00060006000600063A
:10364800000300030003000000000000001E001E2D
:103658000006000600060006000600060006000632
:10366800000600060006000600060006001E001EF2
:103678000000000C000C001E0012003300338061B3
:103688008061000000000000000000000000000051
:103698000000000000000000000000000000000022
:1036A8000000000000000000000000000000000012
:1036B80000000000E0FF0000000000380018000CC7
:1036C80000000000000000000000000000000000F2
:1036D80000000000000000000000000000000000E2
:1036E800000000000000001F803F80618001801FF3
:1036F800803F80618063807FC03800000000000048
:1037080000000060006000600060006E007F807351
:1037180080618061806180618073007F006E00003D
:103728000000000000000000000000000000001E73
:10373800003F807380610060006080618073003F9B
:10374800001E0000000000000000800180018001D0
:103758008001801D803F807380618061806180610D
:103768008073803F801D0000000000000000000002
:10377800000000000000001E003F00738061807F91
:10378800807F00608071003F001E00000000000084
:103798000000C007C00F000C000C807F807F000C69
:1037A800000C000C000C000C000C000C000C0000BD
:1037B800000000000000000000000000801D803FA5
:1037C800807380618061806180618073803F801D2B
:1037D80080018063007F003E0000006000600060A0
:1037E8000060006F807F807180618061806180618E
:1037F8008061806180610000000000000000000618
:10380800000600000000003E003E0006000600061C
:103818000006000600060006000600000000000082
:103828000006000600000000003E003E00060006FC
:103838000006000600060006000600060006004610
:10384800007E003C00000060006000600060806155
:1038580000630066006C007C007600630063806192
:10386800C0600000000000000000003E003E0006AE
:103878000006000600060006000600060006000610
:10388800000600060006000000000000000000001E
:1038980000000000000080DDC0FFC0CEC0CCC0CC5E
:1038A800C0CCC0CCC0CCC0CCC0CC00000000000054
:1038B80000000000000000000000006F807F8071A1
:1038C80080618061806180618061806180610000C9
:1038D8000000000000000000000000000000001EC2
:1038E800003F807380618061806180618073003FE8
:1038F800001E0000000000000000000000000000A2
:10390800006E007F80738061806180618061807358
:10391800007F006E00600060006000600000000032
:1039280000000000801D803F80738061806180619D
:1039380080618073803F801D80018001800180014B
:10394800000000000000000000000067803F003910
:10395800003000300030003000300030003000000F
:103968000000000000000000000000000000001E31
:10397800803F80610060007F803F80018061007F20
:10398800001E0000000000000000000000080018F1
:103998000018007F007F0018001800180018001891
:1039A8000018801F800F00000000000000000000C9
:1039B800000000000000806180618061806180619A
:1039C800806180618063807F803D0000000000008E
:1039D80000000000000000000000C060803180315D
:1039E8008031001B001B001B000E000E00060000AB
:1039F800000000000000000000000000000080DD62
:103A080080DD80DD005500550055007700770022E5
:103A1800002200000000000000000000000000007C
:103A28000000806100330033001E000C000C001EF3
:103A38000033003380610000000000000000000037
:103A48000000000080618061803100330033001B7A
:103A5800001B001B000E000E000E001C007C0070F6
:103A680000000000000000000000C07FC07F80014F
:103A780000030006000C00180030C07FC07F000063
:103A8800000000008003800700060006000600060C
:103A98000006000E001C001C000E000600060006B2
:103AA80000060006800780030006000600060006E0
:103AB80000060006000600060006000600060006CE
:103AC8000006000600060006000600060038003C56
:103AD800000C000C000C000C000C000E0007000786
:103AE800000E000C000C000C000C000C003C003810
:103AF8000000000000000000000000000000803806
:103B0800807F004700000000000000000000000067
:103B180000000000496E696369616E646F00656C3E
:103B28002053697374656D61004269656E76656ED0
:103B380069646F00457363616E65617200456E76F6
:103B480069617200496E69636961720045736361F6
:103B58006E65616E646F00456E7669616E646F00B4
:083B68009CC6FF7F0100000074
:043B7000B90100088F
:043B740095010008AF
:103B78000024F4000B120000C02D00080100000012
:043B88001000000029
:0400000508000A3DA8
:00000001FF
