:020000040800F2
:1000000000000120C10B00081D0B00081F0B000899
:10001000210B0008230B0008250B0008000000003E
:10002000000000000000000000000000270B000896
:10003000290B0008000000002B0B00082D0B000806
:10004000110C0008110C0008110C0008110C00081C
:10005000110C0008110C0008310B0008370B0008C8
:100060003D0B0008110C0008110C0008110C0008D1
:10007000110C0008110C0008110C0008110C0008EC
:10008000110C0008110C0008110C00080000000001
:10009000000000000000000000000000430B00080A
:1000A000110C0008110C0008110C0008110C0008BC
:1000B000490B0008550B0008110C0008110C000832
:1000C000110C0008110C0008110C0008110C00089C
:1000D000110C0008610B0008110C00080000000062
:1000E000110C0008110C0008110C000800000000A1
:1000F000000000000000000000000000110C0008DB
:1001000000000000110C0008110C0008110C000880
:1001100000000000000000000000000000000000DF
:10012000110C0008110C0008110C0008110C00083B
:10013000110C00080000000000000000000000009A
:10014000000000000000000000000000110C00088A
:10015000110C0008110C0008110C0008110C00080B
:10016000110C0008110C0008000000000000000045
:10017000000000000000000000000000000000007F
:1001800000000000110C000800000000000000004A
:04019000110C000846
:1001A00010B5054C237833B9044B13B10448AFF3B1
:1001B00000800123237010BD6800002000000000B3
:1001C000A83E000808B5034B1BB103490348AFF331
:1001D000008008BD000000006C000020A83E000860
:1001E000034613F8012B002AFBD1181A0138704777
:1001F00001F0FF01102A2BDB10F0070F08D010F8D8
:10020000013B013A8B422DD010F0070F42B3F6D1DB
:10021000F0B441EA012141EA014122F007047FF0F4
:1002200000070023F0E80256083C85EA010586EA4B
:10023000010685FA47F5A3FA87F586FA47F6A5FA87
:1002400087F68EB9EED1F0BC01F0FF0102F0070293
:1002500032B110F8013B013A83EA010313B1F8D13E
:100260000020704701387047002D06BF354603381F
:10027000073815F0010F07D1013015F4807F02BF58
:10028000013015F4C03F0130F0BC0138704700BFA9
:1002900053B94AB9002908BF00281CBF4FF0FF31ED
:1002A0004FF0FF3000F088B9ADF1080C6DE904CED5
:1002B00000F006F8DDF804E0DDE9022304B0704741
:1002C0002DE9F047089D8E4604468846002B4AD10A
:1002D0008A42174662D9B2FA82F64EB1C6F12003BD
:1002E00001FA06F820FA03F3B74043EA0808B440DD
:1002F0004FEA174E1FFA87FCB8FBFEF1230C0EFBEA
:10030000118843EA084301FB0CF29A4209D9FB1811
:1003100001F1FF3080F0EA809A4240F2E780023932
:100320003B449A1AA3B2B2FBFEF00EFB102243EA42
:10033000024300FB0CFC9C4509D9FB1800F1FF327D
:1003400080F0D6809C4540F2D3803B44023840EA9E
:100350000140A3EB0C0300211DB1F3400022C5E9CD
:100360000032BDE8F0878B4205D90DB1C5E9000127
:1003700000210846F5E7B3FA83F1002946D1734519
:1003800002D3824200F20581841A6EEB030201203F
:100390009046002DE5D0C5E90048E2E7002A00F0CC
:1003A0009080B2FA82F6002E40F0A4808A1A030CE4
:1003B0004FEA174E80B2BCB20121B2FBFEFC0EFB2D
:1003C0001C2243EA024304FB0CF29A4207D9FB18B1
:1003D0000CF1FF3802D29A4200F2E080C4469B1A28
:1003E000B3FBFEF20EFB123340EA034302FB04F4BC
:1003F0009C4207D9FB1802F1FF3002D29C4200F266
:10040000CA8002461B1B42EA0C40A5E7C1F1200648
:100410008B4022FA06F71F430EFA01F420FA06F386
:100420002EFA06FE4FEA1749234300FA01F81FFA95
:1004300087FCBEFBF9F01C0C09FB10EE44EA0E44ED
:1004400000FB0CFEA64502FA01F209D93C1900F1A5
:10045000FF3A80F09C80A64540F2998002383C44E7
:10046000A4EB0E041FFA83FEB4FBF9F309FB13445B
:100470004EEA044403FB0CFCA44508D93C1903F1E3
:10048000FF3E80F08280A4457FD9023B3C4443EA92
:100490000040A4EB0C04A0FB02EC64457346E1466B
:1004A00062D35FD05DB1B8EB030264EB090404FAD8
:1004B00006F622FA01F31E43CC40C5E90064002190
:1004C0004FE7B1FBF2FC010C41EA0E4180B240EA79
:1004D00001423B4638463C46B846BE462026B1FB64
:1004E000F7F1A2EB080241EA0C4166E7014618E782
:1004F00010462CE7C6F120022EFA02F3B740B140B5
:1005000020FA02F24FEA174E0A43B3FBFEF8BCB2E0
:100510000EFB1833110C41EA034108FB04F9B0400B
:1005200089454FEA104380B23ED9791808F1FF3C63
:1005300001D289451FD8A1EB0901B1FBFEF909FBE6
:1005400004F80EFB191192B242EA0142424529D247
:10055000BA1809F1FF31C4D24245C2D2A9F1020151
:100560003A44BEE7F0459DD2BEEB02036CEB070CAC
:100570000138E14696E7A7EB09094944A8F1020CC6
:10058000B1FBFEF909FB04F8DBE773467FE7504651
:1005900066E70846FDE63B44023A33E7ACF1020C5D
:1005A0003B441CE749469CE7A1EB0901C446B1FB6B
:1005B000FEF909FB04F8C4E7704700BF70B590B0BE
:1005C00001F02AF900F058FB142200210BA802F0D8
:1005D000D9FF0024994B01941A6B994842F0040208
:1005E0001A631A6B02F004020192019A02941A6BC8
:1005F00042F080021A631A6B02F080020292029AA1
:1006000003941A6B42F001021A631A6B02F00102A2
:100610000392039A04941A6B42F002021A631B6B52
:1006200003F00203224604933E21049B3E2501F081
:10063000C7FA012382480BA9CDE90B534FF4881662
:10064000CDE90D4401F0F0F980237D480D940BA90C
:10065000CDE90B36072501F0E7F97A480D940BA98F
:10066000CDE90B5601F0E0F922462146062001F0C3
:1006700025F9062001F054F922462146284601F0CA
:100680001DF9284601F04CF922462146082001F0C8
:1006900015F9082001F044F922462146172001F0FF
:1006A0000DF9172001F03CF9674E6848684B046269
:1006B000C0E900634FF48043C0E90244C0E9043458
:1006C000C0E9064401F07EFB08B100F0D3FA6148AE
:1006D000614C4FF4E133C0E900430C220023C0E930
:1006E0000233C0E905230361C36102F09FFC08B136
:1006F00000F0C0FA102200210BA802F043FF574877
:100700000F224FF080410023C0E9001249F63F421A
:10071000CDE90733C0E903238360836102F050F918
:1007200008B100F0A7FA4FF480534C480B930BA983
:1007300002F064FA08B100F09DFA0023474807A9C7
:10074000CDE9073302F07CFB08B100F093FA0024F6
:100750001022002107A802F015FF102221460BA845
:10076000CDE9054402F00EFF3D483E4A84600F2368
:10077000C0E900234FF6FF73C0E90334846102F03F
:100780001FF908B100F076FA4FF48053344807930C
:1007900007A902F033FA08B100F06CFA304802F011
:1007A0003BF908B100F066FA00242D4805A9CDE90F
:1007B000054402F045FB08B100F05CFA012328482B
:1007C0000B9400220BA9CDE90C340E9402F080F9B1
:1007D00008B100F04FFA1A480222802100F01AFAFC
:1007E00018480022012100F015FA164801220221C2
:1007F00000F010FA13480322042100F00BFA00F075
:100800001BFB012000F024FA044688B900F020FA0E
:1008100080B9032000F01CFA70B9022000F018FA29
:1008200000280CBF4FF0FF30022000F00BFBE8E780
:100830000120FAE72046F8E70320F6E700380240F7
:100840000000024000040240005400405C0100200F
:10085000801A0600840000200010014014010020CE
:10086000CC00002000040040012808B513D100206E
:1008700000F0DCF90E4801F083FF062001F05EF87D
:10088000072001F05BF8082001F058F8BDE80840A7
:10089000172001F053B8802801D10220E8E704288E
:1008A00001D10320E4E70228E4D10120E0E700BF02
:1008B000140100200368B3F1804F10B544D100202B
:1008C00000F0D0F90128014605D1204800F01FFAB8
:1008D00008B900F0B3F9012000F0C4F9012804467A
:1008E00007D11A48022100F012FA10B9204600F090
:1008F000A5F9032000F0B6F9012807D11348042117
:1009000000F005FA10B9032000F098F9022000F079
:10091000A9F9012807D10E48802100F0F8F910B993
:10092000022000F08BF90B4801F016FF062000F0C2
:10093000F7FF072000F0F4FF082000F0F1FFBDE80A
:100940001040172000F0ECBF10BD00BF00040240B3
:10095000000002401401002082B00C4B00210091E5
:100960005A6C42F480425A645A6C02F480420092FB
:10097000009A01911A6C42F080521A641B6C03F0C9
:1009800080530193019B02B0704700BF00380240C2
:1009900030B5044689B01422002103A802F0F2FD0C
:1009A0002268134B9A4221D1124C1348002501951D
:1009B000236B43F002032363236B03F002030193D1
:1009C000019BC0221223CDE9032303210423CDE997
:1009D000061303A901F028F80295236C43F40013D1
:1009E0002364236C03F400130293029B09B030BD0F
:1009F00000540040003802400004024010B5044694
:100A000088B01422002103A802F0BCFD2368B3F1D2
:100A1000804F15D1002203F50E330092196C41F07E
:100A2000010119641B6C03F0010300931C201146A3
:100A3000009B00F043FF1C2000F072FF08B010BDC7
:100A4000144A9342FAD1144B1448002401941A6CAE
:100A500042F002021A641A6C02F002020192019A38
:100A600002941A6B42F001021A631B6B03F001033C
:100A700002934022029B03A90223CDE9032307939B
:100A800000F0D2FF1D202246214600F017FF1D2056
:100A9000D2E700BF000400400038024000000240DE
:100AA00010B5044688B01422002103A802F06AFDA4
:100AB0002268184B9A422BD103F5943300240194F9
:100AC0005A6C154842F010025A645A6C02F0100237
:100AD0000192019A02941A6B42F001021A631B6B95
:100AE00003F0010302934FF4C062029B0223CDE99D
:100AF000032303210723CDE9061303A900F094FF84
:100B000025202246214600F0D9FE252000F008FFCE
:100B100008B010BD0010014000000240FEE7FEE7F3
:100B2000FEE7FEE7FEE770477047704700F08EBEB5
:100B3000012001F04BB8022001F048B8042001F078
:100B400045B8802001F042B8014801F065BE00BF01
:100B500014010020014801F05FBE00BFCC0000205E
:100B6000014802F09DBB00BF840000200B4A1168C1
:100B700010B5034609B90A491160106809490A4CC1
:100B80000344091B8B4206D902F018FD0C230360B5
:100B90004FF0FF3010BD1360FCE700BFB001002034
:100BA000300C00200000012000040000034AD2F8AD
:100BB000883043F47003C2F88830704700ED00E0DD
:100BC000DFF834D0FFF7F2FF0C480D490D4A00233F
:100BD00002E0D458C4500433C4188C42F9D30A4AF2
:100BE0000A4C002301E013600432A242FBD302F05E
:100BF000EBFCFFF7E3FC7047000001200000002041
:100C000068000020EC4C0008680000202C0C00203C
:100C1000FEE70000044B43F8320003EBC20300225E
:100C20009980DA80704700BFB4010020024B03EBCB
:100C3000C00301229A717047B4010020034B03EBFB
:100C4000C0034FF48172DA80704700BFB401002006
:100C5000034B03EBC003D87908B10022DA71704767
:100C6000B4010020024B03EBC0039879704700BF2A
:100C7000B401002072B6FEE710B594B02C2200211A
:100C800009A802F07FFC1422002103A802F07AFCDC
:100C900000241A4B01941A6C42F080521A641B6CA7
:100CA000174A03F080530193019B0294136823F4C5
:100CB000404343F40043136013680E9403F440432D
:100CC0000293029B022308930121102308A8CDE977
:100CD0000B1301F0ABFA08B1FFF7CCFF0F23002193
:100CE00003A8CDE90334CDE90544079401F07AFC6B
:100CF00008B1FFF7BFFF14B010BD00BF00380240BD
:100D000000700040531E5A425A4100F059BF08B5C6
:100D100000F050FF431E5842584108BD01480021D1
:100D200002F014B8CC00002070B5104C104D1148E2
:100D3000002601222021268000F042FF2B685E62FF
:100D40005A6A092AFCD920210A48002200F038FFFB
:100D50002A68D36843F00203D360074B32201B8814
:100D6000238000F085FD207870BD00BF2C0200209C
:100D7000CC000020000002402E020020F8B5077FC2
:100D8000012F054610D1254C254E217869B901F077
:100D90002AFD2B6830601A6A277022F00A021A6254
:100DA0001A6A42F002021A62F8BD002101F01BFD2E
:100DB0001C4B2A681860002353623368984236BF80
:100DC000C3F58033C01AC018A0F1740145F62C2376
:100DD00099421ED840F2B36343431349B3FBF1F188
:100DE00042F21075C9B2B3FBF5F39BB20F4D286008
:100DF0000F4801700F490B8000232370136A23F002
:100E00000A031362136A1362D36823F00203D360E8
:100E1000CAE7FF214FF6FF73E8E700BF3102002069
:100E20003C02002038020020A0860100340200208D
:100E3000300200202E020020014B00221A70704761
:100E4000560600202DE9F341414C23780546082B36
:100E50007CD8DFE803F0051C23313D515969760049
:100E600000F0C6FB00F0C4F808230222CDE90032EE
:100E7000384939480423102200F098F9FFF74EFF53
:100E80004FF47A7000F0F4FC0123237011E000F0BD
:100E9000D1F84FF47A7000F0EBFC15E0012803D193
:100EA00000F0F0F80523F0E7032802D100F0FCF889
:100EB000257002B0BDE8F081032803D100F060F98D
:100EC0000423E2E70228F4D100F0CAF80223DCE7A9
:100ED000224EDFF89080204F0025FFF725FF0135D7
:100EE00026F8020BA8F80000384600F06BF9B5F5BB
:100EF000007FF2D16420CEE70028E5D00328D8D1C6
:100F000000F0E4F80623C0E700F0E0F814484FF4DE
:100F10007A7100F039FC18B900F0EEF80723B4E755
:100F200000F00CF90823B0E70C4E0D4F002536F801
:100F3000021B3846013500F009FCB5F5007FF6D1FB
:100F4000AEE74FF47A7000F093FCABE700239CE728
:100F500056060020000002404002002054020020FB
:100F6000840000205406002038B5064C05460F22A8
:100F700004EB001004EB051402F00CFB0023E373F8
:100F800038BD00BF570600202DE9F7430746002073
:100F900000F07CF90024144EDFF8508025464FF015
:100FA00001092146002000F0A1F9AF4219D1611ECC
:100FB0008022CDF80090122389B2002000F094FA2C
:100FC000002230464146013500F0E4F912340B2D81
:100FD000A4B206F11006E4D103B0BDE8F04300F07E
:100FE000E5BA0122EDE700BF57060020040000200B
:100FF00010B5002000F04AF90B4C0021084600F023
:1010000075F901222146094800F0C4F91421002095
:1010100000F06CF921460648012200F0BBF9BDE85A
:10102000104000F0C3BA00BF04000020344C000898
:101030003E4C000808B5002000F028F900210846C1
:1010400000F054F904490548012200F0A3F9BDE875
:10105000084000F0ABBA00BF04000020494C000873
:1010600008B506490020FFF77FFF01200449FFF77C
:101070007BFFBDE808400020FFF786BF544C000806
:101080005D4C000808B506490020FFF76DFF012000
:101090000449FFF769FFBDE808400120FFF774BF6E
:1010A000544C00085D4C000808B506490020FFF7C5
:1010B0005BFF01200449FFF757FFBDE8084000200F
:1010C000FFF762BF644C0008A84C000808B5002078
:1010D00000F0DCF80021084600F008F90449054852
:1010E000012200F057F9BDE8084000F05FBA00BFE8
:1010F000040000206C4C000810B5002000F0C6F879
:101100000B4C0021084600F0F1F801222146094865
:1011100000F040F91421002000F0E8F821460648CC
:10112000012200F037F9BDE8104000F03FBA00BFDF
:1011300004000020774C0008804C000810B5002007
:1011400000F0A4F80B4C0021084600F0CFF8012273
:101150002146094800F01EF91421002000F0C6F8CD
:1011600021460648012200F015F9BDE8104000F0C4
:101170001DBA00BF04000020864C00088F4C0008F8
:1011800008B5002000F082F80021084600F0AEF813
:1011900004490548012200F0FDF8BDE8084000F0D0
:1011A00005BA00BF04000020974C00084381BDF839
:1011B00000308381BDF80430C38100234160028187
:1011C0000382704738B50446018940682E4D0122DC
:1011D000FFF798FD618960680022FFF793FDA18900
:1011E00060680022FFF78EFDE18960680022FFF74A
:1011F00089FD286800F03CFB218960680022FFF728
:1012000081FD618960680122FFF77CFDA18960682A
:101210000022FFF777FDE18960680022FFF772FD89
:10122000286800F025FB218960680022FFF76AFD2D
:10123000618960680022FFF765FDA189606801226D
:10124000FFF760FDE18960680022FFF75BFD286819
:1012500000F00EFB218960680022FFF753FD6189D1
:1012600060680022FFF74EFDA18960680022FFF749
:1012700049FD6068E1890122FFF744FD2868BDE867
:10128000384000F0F5BA00BF0C00002000284FF4F1
:101290008062034814BFFF21002102F073B900BF30
:1012A000DE0600207F2830B510D83F290ED80D4B20
:1012B0000D4C1D79CB0801F0070145B14AB900EB8F
:1012C000C3100123225C8B401343235430BD012AF9
:1012D000F5D000EBC3100122235C8A4023EA02030D
:1012E000F3E700BFD8060020DE060020014B18807F
:1012F00059807047D80600202DE9F04FDFF8909014
:1013000085B0B9F8006001920A7832447F2A054618
:101310000C463BDCB9F802B04A785A443F2A35DC27
:10132000A0F12003002703936278974207D3227825
:101330001644A9F80060284605B0BDE8F08F039B6D
:10134000616802FB03720BEB070A31F8123002935B
:101350004FF000081FFA8AFA2278904501D301372E
:10136000E2E7029B03FA08F2130454BF019B019ABF
:1013700006EB080058BFB3FA83F280B258BF520997
:101380005146FFF78FFF08F10108E5E70025D2E796
:10139000D806002070B50D461646441E14F8010FFD
:1013A00038B132462946FFF7A7FF0346207883422B
:1013B000F4D070BD2DE9F04F7F2828BF7F207F2A11
:1013C00028BF7F223F2928BF3F2185B03F2B28BF60
:1013D0003F2390429DF83840019434BFA2EB0009AE
:1013E000A0EB02099942064614460F461D460FFA25
:1013F00089F929D2A3EB010A90420FFA8AFA2ED278
:101400004FF0010B0123D145DBBF0AEBDA784FEA3D
:10141000680809EBD978C8F10008CCBF4FEA680822
:101420000FFA88F8B9F1000F27D1AF429EBF2B46C3
:101430003D461F46B44228BF3446A4B22DB2BD4239
:1014400013DD05B0BDE8F08FA1EB030A90420FFA5F
:101450008AFA07D34FF0FF3B4FF0FF33D3E74FF04B
:10146000FF3BCFE74FF0010BF6E7ADB22946019AFB
:101470002046FFF717FF0135E0E7BAF1000F1FD054
:10148000C9F100020292019A039339463046FFF7F0
:1014900009FFA642039B01D1AF42D2D0029A9045E8
:1014A000C1BFA8EB0A025E4412B2B6B2D8BF424630
:1014B000D04503DA4A441F4412B2BFB29046E2E775
:1014C000BD4228BF3D46A642ADB202D823463446AF
:1014D0001E4624B2B442B4DCA4B22046019A294686
:1014E000FFF7E0FE0134F4E72DE9F7437F289DF88C
:1014F000288006460F461D4624D83F2922D8831847
:101500007F2BC8BFC0F1800201EB0503C8BF92B2B8
:101510003F2BC8BFC1F140050244C8BFADB24FF078
:10152000000994B207EB09039BB21946CDF800807D
:101530002246304609F10109FFF73CFF1FFA89F303
:101540009D42EFD203B0BDE8F083000030B5C3B0D8
:1015500000248DF80810E1B2994204F101050AD384
:101560000A220133009201469BB202AA054800F00C
:10157000D1FC43B030BD02AC0C44515C61702C46D0
:10158000E9E700BF5C0100201FB50A238DF80C10AD
:101590008DF80D2000930146022303AA024800F0B3
:1015A000B9FC05B05DF804FB5C01002038B50F4DB7
:1015B000B024224600217820FFF7E6FF00221146E2
:1015C0007820FFF7E1FF0134102200217820FFF797
:1015D000DBFFE4B22A46802340217820FFF7B6FFE4
:1015E000B82C05F18005E4D138BD00BFDE0600202F
:1015F00010B5544844F620630122782100F064FDC0
:101600000446002840F09C800146AE227820FFF777
:10161000BBFF202221467820FFF7B6FF102221468B
:101620007820FFF7B1FFB02221467820FFF7ACFF0A
:10163000C82221467820FFF7A7FF224621467820BE
:10164000FFF7A2FF102221467820FFF79DFF4022DE
:1016500021467820FFF798FF812221467820FFF766
:1016600093FFFF2221467820FFF78EFFA12221461B
:101670007820FFF789FFA62221467820FFF784FF14
:10168000A82221467820FFF77FFF3F2221467820BD
:10169000FFF77AFFA42221467820FFF775FFD322B7
:1016A00021467820FFF770FF224621467820FFF779
:1016B0006BFFD52221467820FFF766FFF0222146F6
:1016C0007820FFF761FFD92221467820FFF75CFFE1
:1016D000222221467820FFF757FFDA222146782080
:1016E000FFF752FF122221467820FFF74DFFDB2241
:1016F00021467820FFF748FF202221467820FFF777
:1017000043FF8D2221467820FFF73EFF1422214619
:101710007820FFF739FFAF2221467820FFF734FF0A
:101720002E2221467820FFF72FFF2046FFF7AEFD3F
:10173000FFF73CFF044B01201C805C80587110BDFA
:101740000020FCE75C010020D80600201FB50446FD
:101750000A4601A80A4901F0F3FE01A8FEF740FD80
:1017600001A982B24FF0FF33204601F08EFC0549FB
:101770004FF0FF330222204601F087FC04B010BD79
:10178000A24C0008A64C000837B56F238DF8063030
:1017900000230C468DF8073001220B460DF106019F
:1017A000054601F072FC70B9234601220DF10701D4
:1017B000284601F0B8FC40B99DF807006B3818BF07
:1017C000012003B030BD0120FBE70320F9E7000052
:1017D00038B50E4B1A784FF47A73B3FBF2F30C4A18
:1017E00005461068B0FBF3F000F0BAF8044658B9AB
:1017F0000F2D09D8024629464FF0FF3000F05EF861
:10180000044B20461D6038BD0120FCE7100000207D
:10181000000000201400002008B50B4B1A6842F4A9
:1018200000721A601A6842F480621A601A6842F400
:1018300080721A60032000F02FF80F20FFF7C8FF16
:10184000FFF78AF8002008BD003C0240034A044B21
:1018500011681B780B441360704700BFE00A00203A
:1018600010000020014B1868704700BFE00A0020FC
:1018700038B50446FFF7F6FF631C1CBF054B1B7809
:10188000054618BFE418FFF7EDFF431BA342FAD348
:1018900038BD00BF100000200749CA6822F4E0628A
:1018A0000302120403F4E063120C134343F0BF631A
:1018B00043F40033CB60704700ED00E0164B30B5C9
:1018C000DC68C4F30224C4F10703251D042B28BFE0
:1018D0000423062D4FF0FF358CBF033C002405FA8E
:1018E00003F321EA0303A54022EA0502A3400028EE
:1018F00043EA0203ACBF00F16040084A4FEA031319
:10190000B8BF00F00F00DBB2AABF00F5614013546E
:1019100080F8003330BD00BF00ED00E014ED00E0C2
:10192000002807DB044A4109012300F01F0083401F
:1019300042F82130704700BF00E100E000280CDBD6
:101940004309064900F01F0020330122824041F87C
:101950002320BFF34F8FBFF36F8F704700E100E08C
:101960000138B0F1807F0BD24FF0E023054A586177
:10197000F02182F823100020072298611A61704735
:101980000120704700ED00E070B50446866DFFF75A
:1019900069FF94F83530022B054606D08023636535
:1019A0000120002384F8343070BD23681A6822F0C7
:1019B00016021A605A6922F080025A61226C0AB932
:1019C000A26C1AB11A6822F008021A601A6822F092
:1019D00001021A602368186810F0010007D1E26D57
:1019E0003F239340B360012384F83530D9E7FFF7F4
:1019F00039FF401B0528EDD920230320636584F8B7
:101A00003500CEE790F83530022B03D080234365B4
:101A1000012070470268052380F83530136823F0F1
:101A200001031360002070472DE9F74FDFF8809124
:101A30005D4A00230D6801249C4004EA0506AC437E
:101A400040F0A3804D68032705F003044FEA4308E4
:101A500007FA08FC671E012F6FEA0C0C34D8876860
:101A600007EA0C0ECF6807FA08F747EA0E07876007
:101A7000476827EA060EC5F300179F4047EA0E079E
:101A80004760C76807EA0C0E8F6807FA08F747EA4D
:101A90000E07022CC76019D14FEAD30A00EB8A0A5D
:101AA00003F0070BDAF820704FEA8B0B4FF00F0EA4
:101AB0000EFA0BFE27EA0E0E0F6907FA0BF747EA3C
:101AC0000E07CAF8207001E0032CDAD1076804FA87
:101AD00008F407EA0C073C4315F4403F046054D077
:101AE00000240194D9F8444044F48044C9F84440A7
:101AF000D9F8444023F0030707F1804704F48044F9
:101B000007F59C37019403F0030C019CD7F808E01B
:101B10004FEA8C0C0F2404FA0CF42EEA040E234C2A
:101B2000A04239D004F58064A04237D004F5806427
:101B3000A04235D004F58064A04233D004F580641F
:101B4000A04214BF0724042404FA0CF444EA0E044F
:101B5000BC609468F74315F4801F0CBF3C403443CD
:101B60009460D46815F4001F0CBF3C403443D4602B
:101B7000546815F4003F0CBF3C4034435460146873
:101B8000ED0354BF3C40344314600133102B7FF409
:101B900051AF03B0BDE8F08F0024D5E70124D3E7AF
:101BA0000224D1E70324CFE7003C014000000240BB
:101BB000003802400369194214BF01200020704719
:101BC0000AB1816170470904FBE70000044A5169CA
:101BD000014208B502D05061FEF746FE08BD00BFC5
:101BE000003C014001684B6913F480634FF0000230
:101BF00010D06FF480634B612023026380F83D3086
:101C000080F83E20036C80F83C2043F0040303641A
:101C100001207047184670472DE9F84606460F46E2
:101C200091461D464FEA114A3368BAF1010F0CBFC5
:101C30005C699C6927EA0404A4B2B4FA84F46409D8
:101C4000A14501D0002025E06A1CEED0FFF70AFE76
:101C5000089BC01AA84201D8002DE5D13368BAF11B
:101C6000010F0CBF5B699B6927EA03039BB2B3FAC0
:101C700083F35B099945D7D100232022336386F88B
:101C80003D2086F83E30326C86F83C3042F020022F
:101C900032640120BDE8F8862DE9F04104460F4684
:101CA000164698462568686927EA000080B2C0B1E8
:101CB0006B695A0517D52B6843F400732B606FF4DA
:101CC00080636B6120220023236384F83D2084F825
:101CD0003E30236C43F004032364002384F83C303B
:101CE0000120BDE8F081731CDDD0FFF7BBFDA0EB48
:101CF0000800B04201D8002ED4D123685A6927EADF
:101D0000020292B2002ACDD000232022236384F85D
:101D10003D2084F83E30236C1343DDE770B5044664
:101D20000D46164623685B691B0601D500201EE0A0
:101D30002046FFF757FFC8B96A1CF3D0FFF792FDA2
:101D4000801BA84201D8002DECD123685B6913F0F9
:101D50008003E7D12022236384F83D2084F83E30BD
:101D6000226C84F83C3042F020022264012070BDD5
:101D700070B504460D46164623685B695B0701D5BE
:101D800000201EE02046FFF72DFFC8B96A1CF3D0E3
:101D9000FFF768FD801BA84201D8002DECD1236815
:101DA0005B6913F00403E7D12022236384F83D200C
:101DB00084F83E30226C84F83C3042F020022264E9
:101DC000012070BD70B5044608B9012070BD90F8BF
:101DD0003D3003F0FF021BB980F83C20FEF7D8FD30
:101DE000242384F83D3023681A6822F001021A6027
:101DF0001A6842F400421A601A6822F400421A601B
:101E000000F08AFC3F4B65689D4294BF3E4B3F4BC0
:101E100098428CBF00230123002BD6D12268394E73
:101E200051683B4BB0FBF3F321F03F011943B5423E
:101E3000516088BF4FF49676116A88BF734321F0D2
:101E40003F0184BF4FF47A76B3FBF6F301330B43C3
:101E50001362D169431E2B4821F44F41854221F082
:101E6000FF0132D86D0040F6FC70B3FBF5F301338F
:101E7000034242D0C3F30B031943D161D4E90730C5
:101E80001168034321F0C0010B4313609168D4E94A
:101E9000030321F40341034321F0FF010B4393604B
:101EA000D4E90530D168034321F0FF010B43D3602F
:101EB000136843F00103136000202023206484F89A
:101EC0003D30206384F83E0080E7A06850B905EB00
:101ED0004505B3FBF5F30133C3F30B037BB143F4C7
:101EE0000043C9E719206843B3FBF0F30133C3F3A0
:101EF0000B0323B143F44043BEE70423BCE70123B3
:101F0000BAE700BFA08601007F841E00FF083D00E5
:101F100040420F002DE9F043044685B098460C9FDF
:101F20000D469146FFF79EFC94F83D30202B064667
:101F300004D00225284605B0BDE8F08300905E4934
:101F4000192301222046FFF767FE0028F1D194F8FB
:101F50003C30012BEDD02168012384F83C300B6824
:101F6000DA075EBF0B6843F001030B600B6823F4D4
:101F700000630B60212384F83D30102384F83E3049
:101F800000232364A4F82A80638D23854B4BE362EE
:101F9000E36AC4F82490082B04D0012B02D013F577
:101FA000803F04D10B6843F480730B6002E0236B25
:101FB000122BF7D0002200963B464FF0011120462D
:101FC000FFF72AFE226840B11368DB0501D4012522
:101FD000B0E74FF400732364F9E72369B3F5804F4A
:101FE00021D105F0FE051561354933463A462046B4
:101FF000FFF752FE05460028E9D1236803905A698D
:1020000003929B690393039B238DF3B921680A68AC
:1020100042F400720A60202284F83D2084F83C30AB
:1020200084F83E3086E7EB1103F0060343F0F0033B
:102030001361244933463A462046FFF72DFE002817
:10204000C5D12368EDB21D61CEE732463946204640
:10205000FFF764FE40B1236C042BB8D122681368EB
:1020600043F400731360B2E7636A20681A4612F8FB
:10207000011B01616262628D013A92B26285228D1A
:10208000D0F814C0511E89B21CF0040F21850AD06B
:1020900049B15978016102336362638D013B9BB2A0
:1020A000023A63852285324639462046FFF760FEB4
:1020B0000028A9D0CFE700BF020010000000FFFFFA
:1020C00002000100080001002DE9F04F044685B030
:1020D0001F4688469246FFF7C5FB94F83D30202BFB
:1020E000054603D0022005B0BDE8F08F00904D49B1
:1020F000192301222046FFF78FFD0028F2D194F822
:102100003C30012BEED0012384F83C302368DFF80B
:1021100014B11A68D0075EBF1A6842F001021A6053
:102120001A6822F400621A60242384F83D300026E5
:102130003D4B266408F0FE08E3622268136843F40E
:10214000807313604FF001113B460095002220463A
:10215000FFF762FD236838B11B68D90544BF4FF40F
:10216000007323640320BEE7C3F81080FFF77AFBF7
:1021700023685A695B690546C2F34002C3F38023B2
:102180004FF0A00994F83D10A0291CD123684FF00E
:10219000200984F83D905A6992072BD51A68214985
:1021A00042F400721A60002203925A6903929B69FA
:1021B0000393039B0095192301222046FFF72CFD72
:1021C00098B101208FE71343E0D1FFF74BFB401B91
:1021D000B84200D80FB984F83D9023685A695B690A
:1021E000C2F34002C3F38023CCE784F83D9084F827
:1021F0003C0078E71A6842F400721A606FF480625B
:102200005A6159460095192301222046FFF704FD23
:102210000028D6D1013656458FD384F83D9084F8F6
:102220003C00CEE7020010000000FFFF2DE9F34163
:10223000044640B30368DE0710D423689D075BD4CF
:102240002368190700F19D8023685A0700F1BD80BB
:10225000A369002B40F0248100202CE08D4B9A686C
:1022600002F00C02042A07D09A6802F00C02082A35
:102270000BD15B68590208D5864B1B689A03DCD5E5
:102280006368002BD9D1012015E06368814DB3F557
:10229000803F13D12B6843F480332B60FFF7E2FAC1
:1022A0007C4E054633689B03C7D4FFF7DBFA401B1F
:1022B0006428F7D9032002B0BDE8F081B3F5A02F60
:1022C00004D12B6843F480232B60E3E72A6822F4CF
:1022D00080322A602A6822F480222A60002BDDD115
:1022E000FFF7C0FA06462B689F03A6D5FFF7BAFA98
:1022F000801B6428F7D9DDE7664B9A6812F00C0F53
:1023000007D09A6802F00C02082A11D15B685D02BE
:102310000ED4604A1368990702D5E368012BB2D145
:102320001368216923F0F80343EAC103136087E7C8
:10233000E268594BB2B101221A60FFF793FA554D8A
:1023400006462B689B0707D52B68226923F0F80304
:1023500043EAC2032B6073E7FFF784FA801B02286D
:10236000EFD9A7E71A60FFF77DFA4A4E05463368B2
:102370009F077FF565AFFFF775FA401B0228F6D976
:1023800098E76269444B82B10122C3F8802EFFF7BF
:1023900069FA404E0546736F9B073FF555AFFFF74F
:1023A00061FA401B0228F6D984E7C3F8802EFFF7B4
:1023B00059FA384E0546736F9F077FF545AFFFF713
:1023C00051FA401B0228F6D974E7324B1A6C12F00E
:1023D000805228D101921A6C42F080521A641B6C10
:1023E00003F080530193019B01272C4D2B68D805E6
:1023F0001BD5A368274D012B27D12B6F43F0010379
:102400002B67FFF72FFA234E054641F28838336FCA
:102410009A0739D5002F3FF41BAF1E4A136C23F0E7
:102420008053136414E70027DFE72B6843F48073BD
:102430002B60FFF717FA06462B68D905D9D4FFF7AA
:1024400011FA801B0228F7D934E7052B04D12B6F32
:1024500043F004032B67D0E72A6F22F001022A67BA
:102460002A6F22F004022A67002BCAD1FFF7FAF97B
:1024700041F2883806462B6F9B07CBD5FFF7F2F960
:10248000801B4045F7D915E7FFF7ECF9401B4045A5
:10249000BDD90FE7003802400000474200700040FD
:1024A000374DAA6802F00C02082A3ED0022B354BA9
:1024B0004FF000021A662BD1FFF7D4F906462B68BD
:1024C00099011FD4D4E907321343626A43EA8213A5
:1024D000E26A43EA0263A26A5208013A43EA02430B
:1024E0006B60284B264D01221A66FFF7BBF90446A4
:1024F0002B689A013FF5B0AEFFF7B4F9001B022834
:10250000F6D9D7E6FFF7AEF9801B0228D7D9D1E676
:10251000FFF7A8F904462B689B017FF59DAEFFF7F6
:10252000A1F9001B0228F6D9C4E6012B3FF4ABAE9B
:102530006B68E26903F4800191427FF4A4AE216AE2
:1025400003F03F028A427FF49EAE616A47F6C07292
:102550001A40B2EB811F7FF496AEA26A520803F4D0
:102560004031013AB1EB024F7FF48DAEE26A03F0E5
:102570007063B3EB026F14BF012000209BE600BF25
:102580000038024000004742134908B58B6803F049
:102590000C03042B1CD0082B1CD14A684B684968DB
:1025A00013F4800314BF0D480D48C1F3881118BF00
:1025B000002302F03F02A1FB0001FDF769FE064B7C
:1025C0005B68C3F3014301335B00B0FBF3F008BD6C
:1025D0000248FCE70248FAE70038024040787D01F3
:1025E0000024F4002DE9F0410D46044610B9012005
:1025F000BDE8F081434B1A6802F007028A4228D3F3
:1026000021688F072DD4C80740D43E4B1A6802F0CA
:102610000702AA4265D8226851076BD4130707D571
:10262000394A2169936823F4604343EAC103936004
:10263000FFF7AAFF344B354A9B68C3F30313D35CFF
:10264000D840334B1860334B1868FFF7C1F80020AF
:10265000CEE7CAB21A701B6803F007038B42C6D1DB
:10266000CEE7294B11F0040F1EBF9A6842F4E052E6
:102670009A600E0742BF9A6842F460429A609A6874
:10268000A06822F0F00202439A60BCE762681E4B29
:10269000012A1CD11B6813F4003FA8D01A4EB3685E
:1026A00023F003031343B360FFF7DCF841F28838EB
:1026B0000746B368626803F00C03B3EB820FA4D043
:1026C000FFF7D0F8C01B4045F3D9032090E7911ED7
:1026D00001291B6802D813F0007FDEE713F0020F18
:1026E000DBE7EAB21A701B6803F00703AB427FF422
:1026F0007EAF90E70449E0688B6823F4E05303431E
:102700008B608BE7003C024000380240C83E000866
:102710000000002014000020044B054A9B68C3F30E
:102720008223D35C034A1068D840704700380240C7
:10273000C03E000800000020044B054A9B68C3F31C
:102740004233D35C034A1068D840704700380240D7
:10275000C03E0008000000200368196A41F211120F
:10276000114208D1196A40F24442114202BF1A686C
:1027700022F001021A60012380F83D3000207047EA
:1027800090F83D30012B28D1022380F83D300368BA
:10279000DA6842F00102DA60114A934212D0B3F1D2
:1027A000804F0FD0A2F57C4293420BD002F580629D
:1027B000934207D002F58062934203D002F59A3229
:1027C000934204D19A6802F00702062A03D01A68DD
:1027D00042F001021A60002070470120704700BFDC
:1027E000000001407047082910D004D841B10429E5
:1027F00009D0002070470C29FBD10368186C704782
:102800000368586B70470368986B70470368D86B10
:102810007047704770477047036870B5DD681E6980
:10282000B10704460DD5AA070BD56FF002021A6155
:10283000012202779B699B0769D0FEF79FFA00236C
:102840002377710710D56A070ED523686FF004024D
:102850001A61022222779B6913F4407F20465CD0E4
:10286000FEF78CFA0023237733070FD528070DD501
:1028700023686FF008021A6104222277DB69990746
:10288000204650D0FEF77AFA00232377F20610D5BF
:10289000EB060ED523686FF010021A61082222772A
:1028A000DB6913F4407F204643D0FEF767FA00232C
:1028B0002377F00708D5E90706D523686FF00102F2
:1028C0001A612046FDF7F6FF320608D52B0606D51D
:1028D00023686FF080021A61204600F0E8FA700663
:1028E00008D5690606D523686FF040021A612046B4
:1028F000FFF791FFB20622D5AB0620D523686FF013
:10290000200220461A61BDE8704000F0CFBAFFF700
:1029100080FF2046FFF77EFF91E7FFF77AFF204612
:10292000FFF778FF9EE7FFF774FF2046FFF772FF7F
:10293000AAE7FFF76EFF2046FFF76CFFB7E770BD11
:102940001D4A036890420ED0B0F1804F0BD0A2F523
:102950007C42904207D002F58062904203D002F59B
:102960008062904208D14A6823F070031343CA681A
:1029700023F4407313430AE0104A9042F7D002F563
:1029800080629042F3D002F580629042EFD04A69B3
:1029900023F0800313438A68C2620A688262064A8F
:1029A000904204BF0A690263026842F004020260B6
:1029B0000122426103607047000001400040014075
:1029C00010B5044630B390F83D3003F0FF021BB958
:1029D00080F83C20FEF712F80223206884F83D308E
:1029E000211DFFF7ADFF012384F84630002084F855
:1029F0003E3084F83F3084F8403084F8413084F829
:102A0000423084F8433084F8443084F8453084F808
:102A10003D3010BD0120FCE710B5044630B390F8FE
:102A20003D3003F0FF021BB980F83C20FFF7DAFECF
:102A30000223206884F83D30211DFFF781FF012328
:102A400084F84630002084F83E3084F83F3084F823
:102A5000403084F8413084F8423084F8433084F8C0
:102A6000443084F8453084F83D3010BD0120FCE747
:102A700070B5056A046A154E24F001040462B04280
:102A800084691ED0B0F1804F1BD0A6F57C46B042C1
:102A900017D006F58066B04213D006F58066B042C6
:102AA0000FD006F59A36B0420BD044F0010263F322
:102AB000071201F00A0125F00A031943826101623D
:102AC00070BD24F003042243F1E700BF0000014081
:102AD000F8B590F83C30012B05460C4600F082809A
:102AE0000120082A85F83C005CD006D842B3042AAD
:102AF00036D0002385F83C30F8BD0C2AF9D12B687C
:102B0000CE68186AD1E90027196A21F48051196248
:102B1000D969120321F4407141EA072120F42040D1
:102B200002F4204266F30F310243D9611A62DA6976
:102B3000A16822F44062DA61DA6942EA01224FE0D8
:102B40002868CB68D1E90012FFF792FF8369A26879
:102B500023F00C0383618369134383610020C8E77A
:102B60002B68CE68186AD1E90027196A21F0100194
:102B700019629969120121F4407141EA072120F09C
:102B8000A00002F0A00266F30F31024399611A62BD
:102B90009A69A16822F440629A619A6942EA012224
:102BA0009A61DBE72B68E768186A1E6A26F480766C
:102BB000D1E900211E62DE69120226F003063143CC
:102BC00020F4206002F4206267F307110243D96108
:102BD0001A62DA69A16822F00C02DA61DA690A4342
:102BE000DA61BBE7022087E710B584680A4324F462
:102BF0007F4442EA03222243826010BD38B590F838
:102C00003C30012B04464FF0020000F08E8084F827
:102C10003D000122206884F83C20836823F47F4330
:102C200023F0770383600B68602B4FD032D8402BA2
:102C300064D016D8202B0DD00AD833F0100109D05B
:102C4000012384F83D30002384F83C30104638BD21
:102C5000302BF5D1826822F07002134343F0070352
:102C600028E0502BECD14A68CD68016A036A23F052
:102C700001030362836921F00A0123F0F00343EAB0
:102C800005130A4383610262836823F0700343F0F3
:102C900057030FE0B3F5805F0DD0B3F5005F0CD0A4
:102CA000702BCDD1CB68D1E90121FFF79DFF83685F
:102CB00043F0770383600022C2E7CB68D1E90121AA
:102CC000FFF792FF836843F48043F3E7036A026AE5
:102CD0004D68C96822F010020262826923F0A003E5
:102CE00022F4704243EA051342EA01328261036230
:102CF000836823F0700343F06703DBE74A68CD681D
:102D0000016A036A23F001030362836921F00A0167
:102D100023F0F00343EA05130A43836102628368E8
:102D200023F0700343F04703C4E702468EE7036ACB
:102D300010B501F01F0101248C4023EA0403036253
:102D4000036A8A401A43026210BD000008B50029D8
:102D500036D190F83E2090F84230D2B2012ADBB250
:102D60006AD1012B68D1022300293FD1026880F883
:102D70003E3080F84230D36843F00203D3600068ED
:102D80000122FFF7D4FF2D4B984212D0B0F1804FB3
:102D90000FD0A3F57C4398420BD003F58063984293
:102DA00007D003F58063984203D003F59A33984225
:102DB0003DD1836803F00703062B38D1002008BDFE
:102DC000042905D190F83F2090F84330D2B2C5E7EE
:102DD00008290BBF90F8402090F8412090F844302B
:102DE00090F845300CBFD2B2D2B2B7E7042908D16F
:102DF000026880F83F3080F84330D36843F0040322
:102E0000BCE7082908D1026880F8403080F84430D7
:102E1000D36843F00803B1E70C2980F8413080F80B
:102E2000453009D10268D36843F01003A6E7036870
:102E300043F001030360C1E70120C0E70000014047
:102E400030B590F83C30012B02464FF002002AD0FA
:102E5000136882F83D005C680D68986824F070047F
:102E60002C435C60104CA34212D0B3F1804F0FD0C2
:102E7000A4F57C44A3420BD004F58064A34207D0A0
:102E800004F58064A34203D004F59A34A34204D12C
:102E9000496820F08000014399600123002082F8F6
:102EA0003D3082F83C0030BD000001407047704763
:102EB000026802F10C0353E8003F23F490730C32D4
:102EC00042E8003102680029F2D102F1140353E80C
:102ED000003F23F0010302F1140C4CE800310029FB
:102EE000F3D1036B012B0BD102F10C0353E8003F2C
:102EF00023F0100302F10C0C4CE800310029F3D14F
:102F0000202380F842300023036370470268C168C1
:102F100038B5136923F440530B43136105468368A6
:102F20000069D168034368690343E86921F41641E5
:102F300021F00C0103430B43D3605369A96923F4C7
:102F400040730B4353611F4B9A4203D003F58063D8
:102F50009A4224D1FFF7F0FBEA691921B2F5004F3C
:102F6000D5E90043A0FB01011CD1DA184FF00005A0
:102F700045EB0503FDF78CF96422B0FBF2F102FB8F
:102F80001103DB003233B3FBF2F303F007025B0003
:102F900002EB011203F4F8731344A36038BDFFF78A
:102FA000BBFBD9E79A009B0FFDF772F96422B0FBD7
:102FB000F2F102FB11031B013233B3FBF2F303EB1B
:102FC0000113EAE700100140F7B505460C46174625
:102FD0001E462A68136834EA030301D1002021E069
:102FE000701CF7D0FEF73EFCC01B86421CD3DEB13E
:102FF0002B68DA685107ECD5802CEAD0402CE8D059
:103000001A681207E5D5002401941A6801925B68DA
:1030100001932846019BFFF74BFF08236B6485F85B
:103020004040012003B0F0BD0320FBE710B504468B
:1030300048B390F8413003F0FF021BB980F84020FC
:10304000FDF72EFD2268242384F84130D36823F451
:103050000053D3602046FFF759FF23681A6922F412
:1030600090421A615A6922F02A025A61DA6842F4DF
:103070000052DA6000202023606484F8413084F834
:103080004230606310BD0120FCE72DE9F84398460B
:1030900090F84130202B04460E4617463FD10029B8
:1030A0003FD0002A3DD021230025456480F84130DF
:1030B000FEF7D8FBA368A784B3F5805F8146E78459
:1030C00003D123690BB935461E46E38C9BB253B935
:1030D00043464A4640212046FFF776FF202350B959
:1030E00084F841300AE043464A4680212046FFF7F3
:1030F0006BFF28B1202384F841300320BDE8F8831A
:1031000022684EB935F8023BC3F308035360E18CE3
:10311000013989B2E184D8E716F8013BF6E70220CD
:10312000ECE70120EAE72DE9F8431F4690F842302A
:10313000202B04460E46914648D1002948D0002A4B
:1031400046D022230025456480F842300563FEF70F
:1031500089FBA368A4F82C90B3F5805F8046A4F89F
:103160002E9003D123690BB935461E46E08D80B2FF
:1031700018B9202384F842300AE03B464246202119
:103180002046FFF721FF28B1202384F84230032096
:10319000BDE8F88323684EB95B68C3F3080325F8DC
:1031A000023BE38D013B9BB2E385DFE7A268B2F50A
:1031B000805F02D032B9226922B95968C9B206F8D3
:1031C000011BEEE7596801F07F01F8E70220DFE715
:1031D0000120DDE770477047704708B5806B00231A
:1031E000C385FFF7F9FF08BD704790F84230222BE6
:1031F00007B542D181680268836AB1F5805F3FD12B
:10320000016900293FD15268C2F3080223F8022B5A
:103210008362C38D013B9BB2C385002B2DD1026815
:10322000D16821F02001D160D16821F48071D16092
:10323000516921F001015161202280F8422043634D
:10324000026B012A026828D1036302F10C0353E8E0
:10325000003F23F0100302F10C0C4CE80031002970
:10326000F3D11368DB0605D5019113680193536808
:103270000193019B818DFFF7B7FF03B05DF804FB5D
:1032800039B9016929B95268D2B21A70836A013317
:10329000BEE7526802F07F02F7E7FFF79CFFECE71A
:1032A00003681A6873B51607D9685D69044608D1C2
:1032B000960668D58D0666D502B0BDE87040FFF76A
:1032C00094BF05F0010001F4907505435BD0D6076B
:1032D00005D5CD0542BF636C43F00103636453071A
:1032E00004D518B1636C43F002036364960704D5F8
:1032F00018B1636C43F004036364150707D501F04C
:10330000200303431EBF636C43F008036364636CD4
:10331000002B32D0920604D58B0602D52046FFF74B
:1033200064FF26687369626C03F0400302F00802D0
:1033300053EA0205204622D0FFF7BAFD73695E0604
:1033400018D5226802F1140353E8003F23F040032C
:10335000143242E800310029F3D1E06B50B1774BD1
:103360000365FEF74FFB40B1E06B036D02B0BDE8B3
:10337000704018472046FFF72FFF02B070BDFFF7DF
:103380002BFF6564F9E7206B012840F09B80D50690
:1033900040F19880C80640F19580002201921A6899
:1033A00001925A680192019A5969A28D490656D52F
:1033B000E06B0168496889B2002947D0914245D243
:1033C000C269E185B2F5807F36D003F10C0252E884
:1033D000002F22F4807203F10C0040E80021002944
:1033E000F3D103F1140252E8002F22F0010203F19D
:1033F000140040E800210029F3D103F1140252E83F
:10340000002F22F0400203F1140040E800210029BF
:10341000F3D1202284F84220216303F10C0252E808
:10342000002F22F0100203F10C0040E800210029D7
:10343000F3D1E06BFEF7A8FA02236363E38DA18D5D
:10344000C91A89B22046FFF7CFFE96E7914294D180
:10345000C369B3F5807F90D102236363F2E7E18D06
:10346000E08D80B289B2002887D0511A89B2002934
:1034700083D003F10C0252E8002F22F4907203F182
:103480000C0545E800200028F3D103F1140252E8AE
:10349000002F22F0010203F1140545E80020002866
:1034A000F3D1202284F84220206303F10C0252E879
:1034B000002F22F0100203F10C0545E8002000283F
:1034C000F3D1C9E7160628D50D0626D594F8412074
:1034D000212A7FF452AFA168226AB1F5805F17D12B
:1034E0002169A9B932F8021BC1F3080159602262AF
:1034F000E28C013A92B2E284002A7FF43EAFDA68AD
:1035000022F08002DA60DA6842F04002DA6034E7E2
:10351000511C216212785A60EAE750067FF52DAF00
:103520004A067FF52AAFDA6822F04002DA602023EB
:1035300084F841302046FFF74DFE1EE7DB310008DE
:103540000EB410B59DB01FAB029006906FF0004115
:103550000A48079104910A4953F8042B0591002465
:1035600002A9006801931B9400F0A8F9029B1C704B
:103570001DB0BDE8104003B0704700BF1800002028
:103580000802FFFF02440346934200D1704703F84C
:10359000011BF9E710B50139034632B111F8014FAB
:1035A00003F8014B013A002CF7D11A440021934251
:1035B00000D110BD03F8011BF9E70000014B1868AA
:1035C000704700BF1800002070B50D4D0D4C641BF6
:1035D000A4100026A64209D10B4D0C4C00F064FC4F
:1035E000641BA4100026A64205D170BD55F8043B0B
:1035F00098470136EEE755F8043B98470136F2E765
:10360000E44C0008E44C0008E44C0008E84C0008D6
:103610007047704738B50546002941D051F8043C41
:103620000C1F002BB8BFE41800F0E0F81D4A136827
:1036300033B9636014602846BDE8384000F0DCB858
:10364000A34208D9206821188B4201BF19685B6822
:1036500009182160EDE71A465B680BB1A342FAD95D
:1036600011685018A0420BD12068014450188342C1
:103670001160E0D118685B68536008441060DAE7B5
:1036800002D90C232B60D6E7206821188B4204BF97
:1036900019685B68636004BF091821605460CAE759
:1036A00038BD00BF280C002070B50F4E0C463168A5
:1036B000054611B900F0A4FB30602146284600F011
:1036C0009FFB431C03D14FF0FF34204670BDC41C48
:1036D00024F00304A042F8D0211A284600F090FB01
:1036E0000130F2D1EFE700BF240C00202DE9F843B0
:1036F000CD1C25F0030508350C2D38BF0C25002DF9
:10370000064601DBA94204D90C2333600020BDE842
:10371000F883DFF8D48000F069F8D8F800301C4650
:1037200044BB29463046FFF7BFFF431C044658D12F
:10373000D8F800402746002F43D1002C4BD02368F7
:103740003946304604EB030900F05AFB814542D16B
:1037500021686D1A29463046FFF7A6FF01303AD09E
:1037600023682B442360D8F800305A6862BBC8F83D
:1037700000700FE02268521B20D40B2A17D9611960
:10378000A342256018BF5960636808BFC8F80010DD
:1037900062514B60304600F02FF804F10B00231DFE
:1037A00020F00700C21A1CBF1B1AA350AFE76268C3
:1037B000A3420CBFC8F800205A60EBE723466468B8
:1037C000AEE73C467F68B6E71A465B68A342FBD18A
:1037D00000235360DEE70C233360304600F00CF822
:1037E00094E70560D6E700BF280C00200148FFF7EA
:1037F0000FBF00BF200C00200148FFF70ABF00BF29
:10380000200C00202DE9F0478E681F46BE420B6851
:1038100082460C4690462DD8B1F90C2012F4906FD8
:1038200026D06569096905EB4505A3EB010905EBA0
:10383000D5757B1C4B446D109D4238BF1D4653050A
:1038400027D52946FFF752FF064660B321694A464D
:1038500000F0E6FAA38923F4906343F08003A38188
:10386000266165614E44A5EB09052660A5603E46CC
:10387000BE4200D93E4620683246414600F0A6FAD4
:10388000A3689B1BA3602368334423600020BDE82A
:10389000F0872A4600F0D2FA06460028E0D12169D6
:1038A0005046FFF7B7FE0C23CAF80030A38943F057
:1038B0004003A3814FF0FF30E9E700002DE9F04F0E
:1038C00098468B891B069DB007460D46144610D5B9
:1038D0000B6973B94021FFF709FF2860286130B9EF
:1038E0000C233B604FF0FF301DB0BDE8F08F40234C
:1038F0006B610023099320238DF82930CDF80C80CB
:103900003023DFF89C818DF82A304FF001092346DF
:103910009A4613F8012B0AB1252AF9D1BAEB040B08
:103920000BD05B46224629463846FFF76BFF013035
:1039300000F0A780099A5A4409929AF80030002BA7
:1039400000F09F8000234FF0FF32CDE905230AF1FC
:10395000010A049307938DF853301A9354460522B5
:1039600014F8011B4E48FCF743FC049AD8B9D00662
:1039700044BF20238DF85330110744BF2B238DF80B
:1039800053309AF800302A2B15D0079A544600205D
:103990004FF00A0C214611F8013B303B092B4BD963
:1039A000B0B1079214E0A0EB080309FA03F3134344
:1039B0000493A246D2E7039B191D1B680391002BB9
:1039C000BBBF5B4242F0020207930793B8BF049269
:1039D00023782E2B0AD163782A2B32D1039B1A1D10
:1039E0001B68039243EAE37302340593DFF8C0A037
:1039F000217803225046FCF7FBFB38B1049BA0EB77
:103A00000A004022824013430134049314F8011B3E
:103A100024488DF828100622FCF7EAFB002836D04F
:103A2000214B1BBB039B073323F00703083303938E
:103A3000099B334409936AE70CFB02320C460120D0
:103A4000A8E700230134059319464FF00A0C2046DD
:103A500010F8012B303A092A03D9002BC6D0059162
:103A6000C4E70CFB012104460123F0E703AB0093FC
:103A70002A460E4B04A93846AFF30080421C064686
:103A8000D6D1AB895B063FF52DAF09982CE703AB88
:103A900000932A46054B04A9384600F079F8EDE773
:103AA000A94C0008B34C00080000000005380008CD
:103AB000AF4C00082DE9F047164698468A680B6916
:103AC000DDF820909342B8BF1346336091F843204D
:103AD00007460C460AB1013333602368990642BF9A
:103AE000336802333360256815F0060506D104F10A
:103AF000190AE36832689B1AAB4226DC94F843301B
:103B00002268003B18BF012392062BD404F1430224
:103B100041463846C84701301ED02368226903F069
:103B20000603042B02BFE5683368ED1AA3680CBFD7
:103B300025EAE57500259342C4BF9B1AED180026BF
:103B40001A34B5421AD1002008E0012352464146FA
:103B50003846C847013003D14FF0FF30BDE8F08749
:103B60000135C6E7E1185A1C302081F84300224491
:103B700094F8451082F843100233C7E70123224628
:103B800041463846C8470130E6D00136D9E7000043
:103B90002DE9FF470F7E0C9E782F914680460C46FC
:103BA0009A4601F1430207D8622F0AD8002F00F08D
:103BB000D180582F00F0B88004F1420684F842709A
:103BC0003AE0A7F16303152BF6D801A151F823F0D1
:103BD000293C00083D3C0008B93B0008B93B0008FF
:103BE000B93B0008B93B00083D3C0008B93B000860
:103BF000B93B0008B93B0008B93B00083B3D000851
:103C0000673C0008F53C0008B93B0008B93B0008D8
:103C10005D3D0008B93B0008673C0008B93B00085F
:103C2000B93B0008FD3C000833681A1D1B68326070
:103C300004F1420684F8423001239CE03368206896
:103C4000191D3160060601D51D6803E04506FBD548
:103C5000B3F90050002D03DA2D236D4284F8433070
:103C600058480A2311E021683368080653F8045BBA
:103C700002D4490648BFADB26F2F5248336014BF1B
:103C80000A230823002184F843106668A660002EEA
:103C900005DB21682E4321F0040121604BD016463C
:103CA000B5FBF3F103FB1157C75D06F8017D2F4605
:103CB000BB420D46F4D9082B0BD12368DF0708D58A
:103CC000236961689942DEBF302306F8013C06F1A2
:103CD000FF36921B2261CDF800A04B4603AA214675
:103CE0004046FFF7E7FE01304AD14FF0FF3004B005
:103CF000BDE8F087236843F020032360324878272B
:103D000084F84570236831681F0651F8045B02D4BB
:103D10005F0648BFADB23160D90744BF43F020030E
:103D200023601DB11023ADE72648E9E7236823F09F
:103D300020032360F6E71646BDE73368256861690E
:103D4000181D30602E061B6801D5196002E0680658
:103D5000FBD51980002323611646BCE733681A1D82
:103D600032601E68626800213046FCF741FA08B1F3
:103D7000801B606063682361002384F84330AAE7F6
:103D80002369324649464046D0470130ADD02368CA
:103D90009B0713D4E068039B9842B8BF1846A6E778
:103DA0000123324649464046D04701309DD0013577
:103DB000E36803995B1AAB42F2DCEBE7002504F100
:103DC0001906F5E7BA4C0008CB4C0008884210B53C
:103DD00001EB020402D98442234607D8431EA142C4
:103DE00008D011F8012B03F8012FF8E7024401462F
:103DF0008A4200D110BD13F8014D02F8014DF7E7DA
:103E000038B5064D0023044608462B60FCF7AEFE8D
:103E1000431C02D12B6803B1236038BD1C0C002069
:103E20000A44914200F1FF3300D1704710B511F8F8
:103E3000014B03F8014F9142F9D110BD2DE9F0413A
:103E4000074614460D4621B9BDE8F0411146FFF77B
:103E50004DBC2AB9FFF7DEFB25462846BDE8F081B8
:103E600000F01AF88442064602D8B4EB500FF4D89A
:103E700021463846FFF73AFC804608B94546ECE74C
:103E8000B4422246294628BF3246FFF7C9FF2946D9
:103E90003846FFF7BFFBF1E751F8043C181F002B31
:103EA000BCBF0B58C0187047F8B500BFF8BC08BCC1
:103EB0009E467047F8B500BFF8BC08BC9E467047E8
:103EC00000000000010203040000000000000000E8
:103ED00001020304060708090000000000000000BA
:103EE00000000000000000000000000000000000D2
:103EF0000000000000000000000000000000000CB6
:103F0000000C000C000C000C000C000C000C000C51
:103F1000000C000C0000000C000C00000000000071
:103F20000000001B001B001B001B001B000000000A
:103F30000000000000000000000000000000000081
:103F40000000000000008019801980198019C07FCE
:103F5000C07F80190033C07FC07F0033003300333F
:103F600000330000000000000000001E003F8075CC
:103F700080650074003C001E000780058065806538
:103F80008075003F001E0004000400000000007067
:103F900000D840D8C0D880D900730006000C801B20
:103FA000C036C066C046C0068003000000000000A6
:103FB0000000001E003F003300330033001E000CE1
:103FC000C03CC066806380618063C03E801C00008E
:103FD000000000000000000C000C000C000C000CA5
:103FE00000000000000000000000000000000000D1
:103FF0000000000000000000800000010003000637
:1040000000060004000C000C000C000C000C000C5E
:1040100000040006000600030001800000200010DC
:104020000018000C000C0004000600060006000644
:10403000000600060004000C000C00180010002010
:104040000000000C002D003F001E003300000000A7
:104050000000000000000000000000000000000060
:1040600000000000000000000000000C000C000C2C
:10407000000CC0FFC0FF000C000C000C000C000086
:104080000000000000000000000000000000000030
:104090000000000000000000000000000000000020
:1040A0000000000C000C00040004000800000000E8
:1040B0000000000000000000000000000000001EE2
:1040C000001E0000000000000000000000000000D2
:1040D00000000000000000000000000000000000E0
:1040E00000000000000000000000000C000C0000B8
:1040F00000000000000000030003000300060006AB
:1041000000060006000C000C000C000C0018001843
:1041100000180000000000000000001E003F0033F7
:10412000806180618061806D806D8061806180616F
:104130000033003F001E00000000000000000006E9
:10414000000E001E003600260006000600060006CF
:104150000006000600060006000600000000000041
:104160000000001E003F80738061806180010003B9
:104170000006000C001800300060807F807F000087
:10418000000000000000001C003E0063006300030C
:10419000000E000E00038001800180618073003FEB
:1041A000001E00000000000000000006000E000ECF
:1041B000001E001E0016003600360066807F807FDD
:1041C0000006000600060000000000000000007F5E
:1041D000007F006000600060006E007F80638001EF
:1041E000800180618073003F001E0000000000001D
:1041F0000000001E003F803380610060006E007F81
:1042000080738061806180618033003F001E000008
:10421000000000000000807F807F80010003000319
:1042200000060006000C000C000C00080018001826
:1042300000180000000000000000001E003F806326
:10424000806180610021001E003F8061806180618B
:104250008061003F001E0000000000000000001E02
:10426000003F00738061806180618073803F801DAA
:10427000800180610073003F001E0000000000000C
:1042800000000000000000000000000C000C000016
:1042900000000000000000000000000C000C000006
:1042A000000000000000000000000000000000000E
:1042B000000C000C00000000000000000000000CDA
:1042C000000C0004000400080000000000000000D2
:1042D00080008003000E003800600038000E80036C
:1042E000800000000000000000000000000000004E
:1042F000000000000000807F807F00000000807FC1
:10430000807F0000000000000000000000000000AE
:10431000000000000000000000400070001C0007CA
:1043200080010007001C0070004000000000000039
:10433000000000000000001F803FC071C060C0008E
:10434000C00180030007000E000C000C0000000CF0
:10435000000C0000000000000000001E003F803143
:1043600080718063806F806D806D806F806700607A
:104370000032003E001C0000000000000000000EA3
:10438000000E001B001B001B001B80318031803F92
:10439000803F8031C060C060C0600000000000004D
:1043A0000000007C007E0063006300630063007E09
:1043B000007E0063806180618063007F007E00007A
:1043C000000000000000001E003F8031806100609E
:1043D0000060006000600060006080618031003F2C
:1043E000001E0000000000000000007C007F006351
:1043F0008063806180618061806180618061006331
:104400000063007E007C0000000000000000807F50
:10441000807F0060006000600060007F007F0060BF
:10442000006000600060807F807F0000000000006E
:104430000000807F807F0060006000600060007F7F
:10444000007F0060006000600060006000600000AD
:10445000000000000000001E003F8031806100600D
:104460000060006080638063806180618031803F94
:10447000001E00000000000000008061806180617B
:10448000806180618061807F807F806180618061E8
:104490008061806180610000000000000000003F3A
:1044A000003F000C000C000C000C000C000C000C79
:1044B000000C000C000C003F003F0000000000005A
:1044C0000000800180018001800180018001800165
:1044D00080018001806180618073003F001E0000C8
:1044E000000000000000C06080610063006600669C
:1044F000006C0078007C006600660063806180616B
:10450000C06000000000000000000060006000606B
:10451000006000600060006000600060006000609B
:104520000060807F807F0000000000000000C071FC
:10453000C071C07BC07AC06AC06AC06EC064C0600F
:10454000C060C060C060C060C060000000000000CB
:10455000000080718071807980798079806D806DB4
:10456000806D8065806780678067806380630000FE
:10457000000000000000001E003F003380618061E9
:104580008061806180618061806180610033003F73
:10459000001E0000000000000000007E007F80631D
:1045A0008061806180618063007F007E00600060C8
:1045B0000060006000600000000000000000001EBD
:1045C000003F003380618061806180618061806133
:1045D000806580670033803F401E000000000000BF
:1045E0000000007E007F8063806180618063007FC7
:1045F000007E00660063006380618061C06000002F
:10460000000000000000000E001F803180310030EB
:104610000038001E00078003806180618031003F08
:10462000001E0000000000000000C0FFC0FF000CE2
:10463000000C000C000C000C000C000C000C000C1A
:10464000000C000C000C0000000000000000806165
:104650008061806180618061806180618061806152
:10466000806180618073003F001E00000000000038
:104670000000C060C060C060803180318031001BAC
:10468000001B001B001B000E000E000E00040000AB
:10469000000000000000C0C0C0C0C0C0C0C0C0C09A
:1046A000C0CC804C804C805E805280528073806190
:1046B00080610000000000000000C0C080608061D8
:1046C0000033003B001E000C000C001E001F003BCE
:1046D00080718061C0C00000000000000000C0C008
:1046E0008061806100330033001E001E000C000C4E
:1046F000000C000C000C000C000C0000000000007E
:104700000000803F803F8001000300030006000C92
:10471000000C0018001800300060807F807F0000CF
:1047200000000000000F000F000C000C000C000C3B
:10473000000C000C000C000C000C000C000C000C19
:10474000000C000C000F000F0000001800180018EB
:10475000000C000C000C000C000600060006000611
:10476000000300030003000000000000001E001E04
:104770000006000600060006000600060006000609
:10478000000600060006000600060006001E001EC9
:104790000000000C000C001E00120033003380618A
:1047A0008061000000000000000000000000000028
:1047B00000000000000000000000000000000000F9
:1047C00000000000000000000000000000000000E9
:1047D00000000000E0FF0000000000380018000C9E
:1047E00000000000000000000000000000000000C9
:1047F00000000000000000000000000000000000B9
:10480000000000000000001F803F80618001801FC9
:10481000803F80618063807FC0380000000000001E
:1048200000000060006000600060006E007F807328
:1048300080618061806180618073007F006E000014
:104840000000000000000000000000000000001E4A
:10485000003F807380610060006080618073003F72
:10486000001E0000000000000000800180018001A7
:104870008001801D803F80738061806180618061E4
:104880008073803F801D00000000000000000000D9
:10489000000000000000001E003F00738061807F68
:1048A000807F00608071003F001E0000000000005B
:1048B0000000C007C00F000C000C807F807F000C40
:1048C000000C000C000C000C000C000C000C000094
:1048D000000000000000000000000000801D803F7C
:1048E000807380618061806180618073803F801D02
:1048F00080018063007F003E000000600060006077
:104900000060006F807F8071806180618061806164
:1049100080618061806100000000000000000006EE
:10492000000600000000003E003E000600060006F3
:104930000006000600060006000600000000000059
:104940000006000600000000003E003E00060006D3
:1049500000060006000600060006000600060046E7
:10496000007E003C0000006000600060006080612C
:1049700000630066006C007C007600630063806169
:10498000C0600000000000000000003E003E000685
:1049900000060006000600060006000600060006E7
:1049A00000060006000600000000000000000000F5
:1049B00000000000000080DDC0FFC0CEC0CCC0CC35
:1049C000C0CCC0CCC0CCC0CCC0CC0000000000002B
:1049D00000000000000000000000006F807F807178
:1049E00080618061806180618061806180610000A0
:1049F0000000000000000000000000000000001E99
:104A0000003F807380618061806180618073003FBE
:104A1000001E000000000000000000000000000078
:104A2000006E007F8073806180618061806180732F
:104A3000007F006E00600060006000600000000009
:104A400000000000801D803F807380618061806174
:104A500080618073803F801D800180018001800122
:104A6000000000000000000000000067803F0039E7
:104A700000300030003000300030003000300000E6
:104A80000000000000000000000000000000001E08
:104A9000803F80610060007F803F80018061007FF7
:104AA000001E0000000000000000000000080018C8
:104AB0000018007F007F0018001800180018001868
:104AC0000018801F800F00000000000000000000A0
:104AD0000000000000008061806180618061806171
:104AE000806180618063807F803D00000000000065
:104AF00000000000000000000000C0608031803134
:104B00008031001B001B001B000E000E0006000081
:104B1000000000000000000000000000000080DD38
:104B200080DD80DD005500550055007700770022BC
:104B30000022000000000000000000000000000053
:104B40000000806100330033001E000C000C001ECA
:104B5000003300338061000000000000000000000E
:104B60000000000080618061803100330033001B51
:104B7000001B001B000E000E000E001C007C0070CD
:104B800000000000000000000000C07FC07F800126
:104B900000030006000C00180030C07FC07F00003A
:104BA00000000000800380070006000600060006E3
:104BB0000006000E001C001C000E00060006000689
:104BC00000060006800780030006000600060006B7
:104BD00000060006000600060006000600060006A5
:104BE0000006000600060006000600060038003C2D
:104BF000000C000C000C000C000C000E000700075D
:104C0000000E000C000C000C000C000C003C0038E6
:104C100000000000000000000000000000008038DC
:104C2000807F00470000000000000000000000003E
:104C300000000000496E696369616E646F00656C15
:104C40002053697374656D61004269656E76656EA7
:104C500069646F00457363616E65617200456E76CD
:104C600069617200496E696369617200436F6E65C4
:104C70006374616E646F00456E7669616E646F0087
:104C80004461746F7300436F6E6578696F6E0046A0
:104C9000616C6C69646100457363616E65616E642B
:104CA0006F00256C75000D0A00232D302B20006845
:104CB0006C4C006566674546470030313233343509
:104CC0003637383941424344454600303132333477
:0C4CD00035363738396162636465660070
:084CDC0004B5FF7F0100000098
:044CE400C5010008FE
:044CE800A10100081E
:104CEC000024F4000B120000D83E00080A0000005B
:104CFC0001000000100000001C000020000000005B
:104D0C00E40A00204C0B0020B40B00200000000033
:104D1C000000000000000000000000000000000087
:104D2C000000000000000000000000000000000077
:104D3C000000000000000000000000000000000067
:084D4C0000000000000000005F
:0400000508000BC123
:00000001FF
